{
  "_format": "hh-sol-artifact-1",
  "contractName": "DAOCommitteeAddV1_1",
  "sourceName": "contracts/dao/DAOCommitteeAddV1_1.sol",
  "abi": [
    {
      "inputs": [
        {
          "internalType": "uint256",
          "name": "x",
          "type": "uint256"
        }
      ],
      "name": "CreateCandiateError",
      "type": "error"
    },
    {
      "inputs": [],
      "name": "PermissionError",
      "type": "error"
    },
    {
      "inputs": [],
      "name": "ZeroAddressError",
      "type": "error"
    },
    {
      "anonymous": false,
      "inputs": [
        {
          "indexed": true,
          "internalType": "address",
          "name": "candidate",
          "type": "address"
        },
        {
          "indexed": true,
          "internalType": "address",
          "name": "candidateContract",
          "type": "address"
        },
        {
          "indexed": false,
          "internalType": "string",
          "name": "memo",
          "type": "string"
        }
      ],
      "name": "CandidateContractCreated",
      "type": "event"
    },
    {
      "anonymous": false,
      "inputs": [
        {
          "indexed": true,
          "internalType": "bytes32",
          "name": "role",
          "type": "bytes32"
        },
        {
          "indexed": true,
          "internalType": "bytes32",
          "name": "previousAdminRole",
          "type": "bytes32"
        },
        {
          "indexed": true,
          "internalType": "bytes32",
          "name": "newAdminRole",
          "type": "bytes32"
        }
      ],
      "name": "RoleAdminChanged",
      "type": "event"
    },
    {
      "anonymous": false,
      "inputs": [
        {
          "indexed": true,
          "internalType": "bytes32",
          "name": "role",
          "type": "bytes32"
        },
        {
          "indexed": true,
          "internalType": "address",
          "name": "account",
          "type": "address"
        },
        {
          "indexed": true,
          "internalType": "address",
          "name": "sender",
          "type": "address"
        }
      ],
      "name": "RoleGranted",
      "type": "event"
    },
    {
      "anonymous": false,
      "inputs": [
        {
          "indexed": true,
          "internalType": "bytes32",
          "name": "role",
          "type": "bytes32"
        },
        {
          "indexed": true,
          "internalType": "address",
          "name": "account",
          "type": "address"
        },
        {
          "indexed": true,
          "internalType": "address",
          "name": "sender",
          "type": "address"
        }
      ],
      "name": "RoleRevoked",
      "type": "event"
    },
    {
      "inputs": [],
      "name": "DEFAULT_ADMIN_ROLE",
      "outputs": [
        {
          "internalType": "bytes32",
          "name": "",
          "type": "bytes32"
        }
      ],
      "stateMutability": "view",
      "type": "function"
    },
    {
      "inputs": [],
      "name": "activityRewardPerSecond",
      "outputs": [
        {
          "internalType": "uint256",
          "name": "",
          "type": "uint256"
        }
      ],
      "stateMutability": "view",
      "type": "function"
    },
    {
      "inputs": [],
      "name": "agendaManager",
      "outputs": [
        {
          "internalType": "contract IDAOAgendaManager",
          "name": "",
          "type": "address"
        }
      ],
      "stateMutability": "view",
      "type": "function"
    },
    {
      "inputs": [
        {
          "internalType": "address",
          "name": "_candidate",
          "type": "address"
        }
      ],
      "name": "candidateContract",
      "outputs": [
        {
          "internalType": "address",
          "name": "",
          "type": "address"
        }
      ],
      "stateMutability": "view",
      "type": "function"
    },
    {
      "inputs": [],
      "name": "candidateFactory",
      "outputs": [
        {
          "internalType": "contract ICandidateFactory",
          "name": "",
          "type": "address"
        }
      ],
      "stateMutability": "view",
      "type": "function"
    },
    {
      "inputs": [
        {
          "internalType": "address",
          "name": "_candidate",
          "type": "address"
        }
      ],
      "name": "candidateInfos",
      "outputs": [
        {
          "components": [
            {
              "internalType": "address",
              "name": "candidateContract",
              "type": "address"
            },
            {
              "internalType": "uint256",
              "name": "indexMembers",
              "type": "uint256"
            },
            {
              "internalType": "uint128",
              "name": "memberJoinedTime",
              "type": "uint128"
            },
            {
              "internalType": "uint128",
              "name": "rewardPeriod",
              "type": "uint128"
            },
            {
              "internalType": "uint128",
              "name": "claimedTimestamp",
              "type": "uint128"
            }
          ],
          "internalType": "struct StorageStateCommittee.CandidateInfo",
          "name": "",
          "type": "tuple"
        }
      ],
      "stateMutability": "view",
      "type": "function"
    },
    {
      "inputs": [
        {
          "internalType": "uint256",
          "name": "",
          "type": "uint256"
        }
      ],
      "name": "candidates",
      "outputs": [
        {
          "internalType": "address",
          "name": "",
          "type": "address"
        }
      ],
      "stateMutability": "view",
      "type": "function"
    },
    {
      "inputs": [
        {
          "internalType": "string",
          "name": "_memo",
          "type": "string"
        },
        {
          "internalType": "address",
          "name": "_operatorAddress",
          "type": "address"
        }
      ],
      "name": "createLayer2Candidate",
      "outputs": [
        {
          "internalType": "address",
          "name": "",
          "type": "address"
        }
      ],
      "stateMutability": "nonpayable",
      "type": "function"
    },
    {
      "inputs": [],
      "name": "daoVault",
      "outputs": [
        {
          "internalType": "contract IDAOVault",
          "name": "",
          "type": "address"
        }
      ],
      "stateMutability": "view",
      "type": "function"
    },
    {
      "inputs": [
        {
          "internalType": "bytes32",
          "name": "role",
          "type": "bytes32"
        }
      ],
      "name": "getRoleAdmin",
      "outputs": [
        {
          "internalType": "bytes32",
          "name": "",
          "type": "bytes32"
        }
      ],
      "stateMutability": "view",
      "type": "function"
    },
    {
      "inputs": [
        {
          "internalType": "bytes32",
          "name": "role",
          "type": "bytes32"
        },
        {
          "internalType": "uint256",
          "name": "index",
          "type": "uint256"
        }
      ],
      "name": "getRoleMember",
      "outputs": [
        {
          "internalType": "address",
          "name": "",
          "type": "address"
        }
      ],
      "stateMutability": "view",
      "type": "function"
    },
    {
      "inputs": [
        {
          "internalType": "bytes32",
          "name": "role",
          "type": "bytes32"
        }
      ],
      "name": "getRoleMemberCount",
      "outputs": [
        {
          "internalType": "uint256",
          "name": "",
          "type": "uint256"
        }
      ],
      "stateMutability": "view",
      "type": "function"
    },
    {
      "inputs": [
        {
          "internalType": "bytes32",
          "name": "role",
          "type": "bytes32"
        },
        {
          "internalType": "address",
          "name": "account",
          "type": "address"
        }
      ],
      "name": "grantRole",
      "outputs": [],
      "stateMutability": "nonpayable",
      "type": "function"
    },
    {
      "inputs": [
        {
          "internalType": "bytes32",
          "name": "role",
          "type": "bytes32"
        },
        {
          "internalType": "address",
          "name": "account",
          "type": "address"
        }
      ],
      "name": "hasRole",
      "outputs": [
        {
          "internalType": "bool",
          "name": "",
          "type": "bool"
        }
      ],
      "stateMutability": "view",
      "type": "function"
    },
    {
      "inputs": [
        {
          "internalType": "address",
          "name": "_candidate",
          "type": "address"
        }
      ],
      "name": "isMember",
      "outputs": [
        {
          "internalType": "bool",
          "name": "",
          "type": "bool"
        }
      ],
      "stateMutability": "view",
      "type": "function"
    },
    {
      "inputs": [],
      "name": "layer2CandidateFactory",
      "outputs": [
        {
          "internalType": "address",
          "name": "",
          "type": "address"
        }
      ],
      "stateMutability": "view",
      "type": "function"
    },
    {
      "inputs": [],
      "name": "layer2Manager",
      "outputs": [
        {
          "internalType": "address",
          "name": "",
          "type": "address"
        }
      ],
      "stateMutability": "view",
      "type": "function"
    },
    {
      "inputs": [],
      "name": "layer2Registry",
      "outputs": [
        {
          "internalType": "contract ILayer2Registry",
          "name": "",
          "type": "address"
        }
      ],
      "stateMutability": "view",
      "type": "function"
    },
    {
      "inputs": [],
      "name": "maxMember",
      "outputs": [
        {
          "internalType": "uint256",
          "name": "",
          "type": "uint256"
        }
      ],
      "stateMutability": "view",
      "type": "function"
    },
    {
      "inputs": [
        {
          "internalType": "uint256",
          "name": "",
          "type": "uint256"
        }
      ],
      "name": "members",
      "outputs": [
        {
          "internalType": "address",
          "name": "",
          "type": "address"
        }
      ],
      "stateMutability": "view",
      "type": "function"
    },
    {
      "inputs": [],
      "name": "pauseProxy",
      "outputs": [
        {
          "internalType": "bool",
          "name": "",
          "type": "bool"
        }
      ],
      "stateMutability": "view",
      "type": "function"
    },
    {
      "inputs": [],
      "name": "quorum",
      "outputs": [
        {
          "internalType": "uint256",
          "name": "",
          "type": "uint256"
        }
      ],
      "stateMutability": "view",
      "type": "function"
    },
    {
      "inputs": [
        {
          "internalType": "bytes32",
          "name": "role",
          "type": "bytes32"
        },
        {
          "internalType": "address",
          "name": "account",
          "type": "address"
        }
      ],
      "name": "renounceRole",
      "outputs": [],
      "stateMutability": "nonpayable",
      "type": "function"
    },
    {
      "inputs": [
        {
          "internalType": "bytes32",
          "name": "role",
          "type": "bytes32"
        },
        {
          "internalType": "address",
          "name": "account",
          "type": "address"
        }
      ],
      "name": "revokeRole",
      "outputs": [],
      "stateMutability": "nonpayable",
      "type": "function"
    },
    {
      "inputs": [],
      "name": "seigManager",
      "outputs": [
        {
          "internalType": "contract ISeigManager",
          "name": "",
          "type": "address"
        }
      ],
      "stateMutability": "view",
      "type": "function"
    },
    {
      "inputs": [
        {
          "internalType": "address",
          "name": "_layer2CandidateFactory",
          "type": "address"
        }
      ],
      "name": "setLayer2CandidateFactory",
      "outputs": [],
      "stateMutability": "nonpayable",
      "type": "function"
    },
    {
      "inputs": [
        {
          "internalType": "address",
          "name": "_layer2Manager",
          "type": "address"
        }
      ],
      "name": "setLayer2Manager",
      "outputs": [],
      "stateMutability": "nonpayable",
      "type": "function"
    },
    {
      "inputs": [
        {
          "internalType": "address",
          "name": "target",
          "type": "address"
        },
        {
          "internalType": "uint256",
          "name": "startBlock_",
          "type": "uint256"
        }
      ],
      "name": "setTargetLayer2StartBlock",
      "outputs": [],
      "stateMutability": "nonpayable",
      "type": "function"
    },
    {
      "inputs": [
        {
          "internalType": "address",
          "name": "target",
          "type": "address"
        },
        {
          "internalType": "address",
          "name": "newImplementation",
          "type": "address"
        },
        {
          "internalType": "uint256",
          "name": "index",
          "type": "uint256"
        },
        {
          "internalType": "bool",
          "name": "alive",
          "type": "bool"
        }
      ],
      "name": "setTargetSetImplementation2",
      "outputs": [],
      "stateMutability": "nonpayable",
      "type": "function"
    },
    {
      "inputs": [
        {
          "internalType": "address",
          "name": "target",
          "type": "address"
        },
        {
          "internalType": "address",
          "name": "l2Registry_",
          "type": "address"
        }
      ],
      "name": "setTargetSetL2Registry",
      "outputs": [],
      "stateMutability": "nonpayable",
      "type": "function"
    },
    {
      "inputs": [
        {
          "internalType": "address",
          "name": "target",
          "type": "address"
        },
        {
          "internalType": "address",
          "name": "layer2Manager_",
          "type": "address"
        }
      ],
      "name": "setTargetSetLayer2Manager",
      "outputs": [],
      "stateMutability": "nonpayable",
      "type": "function"
    },
    {
      "inputs": [
        {
          "internalType": "address",
          "name": "target",
          "type": "address"
        },
        {
          "internalType": "bytes4[]",
          "name": "_selectors",
          "type": "bytes4[]"
        },
        {
          "internalType": "address",
          "name": "_imp",
          "type": "address"
        }
      ],
      "name": "setTargetSetSelectorImplementations2",
      "outputs": [],
      "stateMutability": "nonpayable",
      "type": "function"
    },
    {
      "inputs": [
        {
          "internalType": "address",
          "name": "target",
          "type": "address"
        },
        {
          "internalType": "address",
          "name": "_voteToken",
          "type": "address"
        }
      ],
      "name": "setVoteToken",
      "outputs": [],
      "stateMutability": "nonpayable",
      "type": "function"
    },
    {
      "inputs": [
        {
          "internalType": "bytes4",
          "name": "interfaceId",
          "type": "bytes4"
        }
      ],
      "name": "supportsInterface",
      "outputs": [
        {
          "internalType": "bool",
          "name": "",
          "type": "bool"
        }
      ],
      "stateMutability": "view",
      "type": "function"
    },
    {
      "inputs": [],
      "name": "ton",
      "outputs": [
        {
          "internalType": "address",
          "name": "",
          "type": "address"
        }
      ],
      "stateMutability": "view",
      "type": "function"
    },
    {
      "inputs": [],
      "name": "wton",
      "outputs": [
        {
          "internalType": "address",
          "name": "",
          "type": "address"
        }
      ],
      "stateMutability": "view",
      "type": "function"
    }
  ],
  "bytecode": "0x60808060405234610052576301ffc9a760e01b600052600d6020527f49c01d976ca1c616ed1de1469e98d664903a805642011c315785aa325a483c71805460ff1916600117905561146d90816100588239f35b600080fdfe6080604081815260048036101561001557600080fd5b600092833560e01c90816301ffc9a7146111025750806303e3c9ac146110e357806309a17bce14610ddd57806309a353a614610d4757806316b5d5bd14610d1e5780631703a01814610cff578063248a9ca314610cd557806327fd92fd14610cac5780632a5c2a9c14610c645780632e011c1e14610b9d5780632f2ff15d14610a9e578063342478c21461097b5780633477ee2e1461095157806336568abe146108bf578381634a15efa7146108145781634e24ce491461078a575080635903bd6c146107615780635daf08ca14610707578063627ac99d146106de57806363a8fd89146106b7578063651d08cd1461067c5780636fb7f558146106535780637f331636146106345780638d62d9491461060b5780639010d07c1461056e57806391d1485414610519578063a217fddf146104fe578063a230c524146104b6578063b5dd11581461048d578063baa1253614610423578063ca15c873146103fc578063cc48b947146103d4578063cf2a239c146103a9578063d547741f146102eb57838163e5053e801461025d575063e9152a33146101b357600080fd5b8291346102595780600319360112610259576101cd611154565b838052600c6020526101f96101f43384872060019160005201602052604060002054151590565b611386565b6001600160a01b031691823b15610254578392602484928451958693849263ac28e2ed60e01b84528435908401525af190811561024b57506102385750f35b610241906113e7565b6102485780f35b80fd5b513d84823e3d90fd5b505050fd5b5050fd5b92905034610259578060031936011261025957610278611154565b61028061113e565b90848052600c6020526102a86101f43385882060019160005201602052604060002054151590565b6001600160a01b03908116803b156102e75785928360249286519788958694634d23aaa760e01b865216908401525af190811561024b57506102385750f35b8580fd5b508290346103a557826003193601126103a557803561030861113e565b91818452600c6020526002858520015484526103363386862060019160005201602052604060002054151590565b15610349575090610346916111cf565b80f35b608490602086519162461bcd60e51b8352820152603060248201527f416363657373436f6e74726f6c3a2073656e646572206d75737420626520616e60448201526f2061646d696e20746f207265766f6b6560801b6064820152fd5b5080fd5b50346103d057826003193601126103d0575490516001600160a01b03909116815260209150f35b8280fd5b5050346103a557816003193601126103a557905490516001600160a01b039091168152602090f35b50346103d05760203660031901126103d0576020928291358152600c845220549051908152f35b5050346103a55760203660031901126103a5576104666101f4610444611154565b92848052600c6020523390852060019160005201602052604060002054151590565b61046f8161143e565b60018060a01b03166001600160601b0360a01b601154161760115580f35b5050346103a557816003193601126103a55760035490516001600160a01b039091168152602090f35b5050346103a55760203660031901126103a5576020916001600160801b039060029083906001600160a01b036104ea611154565b168152600986522001541615159051908152f35b5050346103a557816003193601126103a55751908152602090f35b50346103d057816003193601126103d057610565908260209461053a61113e565b92358152600c8652206001600160a01b03909116600090815260019091016020526040902054151590565b90519015158152f35b508290346103a557826003193601126103a557826024359282358152600c602052209082825411156105bd576020846105a785856111b7565b905491519160018060a01b039160031b1c168152f35b608490602085519162461bcd60e51b8352820152602260248201527f456e756d657261626c655365743a20696e646578206f7574206f6620626f756e604482015261647360f01b6064820152fd5b5050346103a557816003193601126103a55760105490516001600160a01b039091168152602090f35b5050346103a557816003193601126103a557602090600b549051908152f35b5050346103a557816003193601126103a55760055490516001600160a01b039091168152602090f35b5050346103a55760203660031901126103a5576020916001600160a01b03908290826106a6611154565b168152600985522054169051908152f35b5050346103a557816003193601126103a55760209060ff600e5460a01c1690519015158152f35b5050346103a557816003193601126103a55760125490516001600160a01b039091168152602090f35b50346103d05760203660031901126103d057356007548110156103d05760076000527fa66cc928b5edb82af9bd49922954155ab7b0942694bea4ce44661d9a8736c688015490516001600160a01b03909116815260209150f35b5050346103a557816003193601126103a55760015490516001600160a01b039091168152602090f35b929050346102595780600319360112610259576107a5611154565b6107ad61113e565b90848052600c6020526107d56101f43385882060019160005201602052604060002054151590565b6001600160a01b03908116803b156102e75785928360249286519788958694635d50929b60e11b865216908401525af190811561024b57506102385750f35b9290503461025957608036600319011261025957610830611154565b61083861113e565b90606435918215158093036102e757858052600c60205261086e6101f43386892060019160005201602052604060002054151590565b6001600160a01b0391821690813b156108bb5786606492819587519889968795637cd5f66360e01b87521690850152604435602485015260448401525af190811561024b57506102385750f35b8680fd5b508290346103a557826003193601126103a5576108da61113e565b90336001600160a01b038316036108f6579061034691356111cf565b608490602085519162461bcd60e51b8352820152602f60248201527f416363657373436f6e74726f6c3a2063616e206f6e6c792072656e6f756e636560448201526e103937b632b9903337b91039b2b63360891b6064820152fd5b50346103d05760203660031901126103d057359160065483101561024857506105a760209261116a565b508290346103a55760603660031901126103a557610997611154565b9260243567ffffffffffffffff808211610a9a5736602383011215610a9a5781840135908111610a9a573660248260051b84010111610a9a576044356001600160a01b038181169291839003610a9557868052602097600c8952610a106101f433888b2060019160005201602052604060002054151590565b1696873b156108bb578451634a5df50f60e01b81529586018590526044860182905260648601936024019190875b828110610a6a5750505050849584868181958195602483015203925af190811561024b57506102385750f35b9091929485359063ffffffff60e01b8216809203610a95579081528201948201929190600101610a3e565b600080fd5b8480fd5b50346103d057816003193601126103d057803591610aba61113e565b91838552600c602052600282862001548552610ae83383872060019160005201602052604060002054151590565b15610b435750828452600c60205283206001600160a01b0390911690610b0f908290611225565b610b17578280f35b33917f2f8788117e7eff1d82e926ec794901d17c78024a50270940304540a733656f0d8480a438808280f35b6020608492519162461bcd60e51b8352820152602f60248201527f416363657373436f6e74726f6c3a2073656e646572206d75737420626520616e60448201526e0818591b5a5b881d1bc819dc985b9d608a1b6064820152fd5b5050346103a55760203660031901126103a557608060a092600383610bc0611154565b9280858351610bce816113cb565b82815282602082015282858201528260608201520152600180881b038094168152600960205220845192610c01846113cb565b8154169485845260018201549160208501928352600281015492828601906001600160801b03978880978195828916865260608b0198841c8952015416970196875283519889525160208901525116908601525116606084015251166080820152f35b5050346103a55760203660031901126103a557610c856101f4610444611154565b610c8e8161143e565b60018060a01b03166001600160601b0360a01b601254161760125580f35b5050346103a557816003193601126103a55760025490516001600160a01b039091168152602090f35b50346103d05760203660031901126103d05781602093600292358152600c85522001549051908152f35b5050346103a557816003193601126103a557602090600a549051908152f35b5050346103a557816003193601126103a55760115490516001600160a01b039091168152602090f35b5090346103d057806003193601126103d05782610d62611154565b610d6a61113e565b828052600c602052610d916101f43386862060019160005201602052604060002054151590565b6001600160a01b0391821690813b15610dd957836024928651978895869463089fd57f60e31b865216908401525af190811561024b5750610dd0575080f35b610346906113e7565b8380fd5b509190346103a557806003193601126103a55767ffffffffffffffff8335818111610dd95736602382011215610dd95780850135918211610dd9576024918282019183823692010111610a9a57610e3261113e565b6011546001600160a01b039791949190881633036110d5578780601254169581600554168851809b81936337d5af5f60e01b835216988986830152608087830152610e8160848301898b61141d565b923060448401526064830152818c60209e8f9503925af19081156110cb579082918a9161108d575b50169788156110775786815260098a5281888220541661106157868a8960038151610ed3816113cb565b8d81528381018681528784830194888652600960608501978a895260808601998b8b528b525288209251166001600160601b0360a01b8354161782555160018201556001600160801b03809351166001600160801b031980955160801b161760028201550192511690825416179055600654600160401b81101561104f57806001610f61920160065561116a565b81549060031b90848a831b921b19161790558982845416926005541660448b848c519687948593635e58d38f60e11b85528a8501528a8401525af1918215611043578192611009575b505015610ff55750508492917f7cf8db18d9a5c7f44156bfabdbb59ac982a8a004e461ca1b87ee71a5cdfbc5ef91610fec86519283928a84528a84019161141d565b0390a351908152f35b600386519163e378c44560e01b8352820152fd5b9091508981813d831161103c575b61102181836113fb565b810103126103a5575190811515820361024857503880610faa565b503d611017565b508751903d90823e3d90fd5b634e487b7160e01b8252604184528482fd5b5050600286519163e378c44560e01b8352820152fd5b5050600186519163e378c44560e01b8352820152fd5b8092508b8092503d83116110c4575b6110a681836113fb565b810103126110c0575181811681036110c057819038610ea9565b8880fd5b503d61109c565b88513d8b823e3d90fd5b855163a648679560e01b8152fd5b5050346103a557816003193601126103a5576020906008549051908152f35b9291905034610dd9576020366003190112610dd9573563ffffffff60e01b8116809103610dd9578352600d602090815292205460ff1615158152f35b602435906001600160a01b0382168203610a9557565b600435906001600160a01b0382168203610a9557565b6006548110156111a15760066000527ff652222313e28459528d920b65115c16c04f3efc82aaedc97be59f3f377c0d3f0190600090565b634e487b7160e01b600052603260045260246000fd5b80548210156111a15760005260206000200190600090565b6000818152600c6020526040902090916001600160a01b0316906111f49082906112a9565b6111fc575050565b33917ff6391f5c32d9c69d2a47ea670b442974b53935d1edc7fd64eb21e047a839171b600080a4565b60008281526001820160205260409020546112a257805490600160401b82101561128c578261127561125e8460018096018555846111b7565b819391549060031b91821b91600019901b19161790565b905580549260005201602052604060002055600190565b634e487b7160e01b600052604160045260246000fd5b5050600090565b9060018201906000928184528260205260408420549081151560001461137f576000199180830181811161136b57825484810190811161135757906113046112f461125e93866111b7565b90549060031b1c928392866111b7565b90558652846020526040862055805480156113435782019161132683836111b7565b909182549160031b1b191690555582526020526040812055600190565b634e487b7160e01b86526031600452602486fd5b634e487b7160e01b88526011600452602488fd5b634e487b7160e01b87526011600452602487fd5b5050505090565b1561138d57565b60405162461bcd60e51b815260206004820152601660248201527539b2b73232b91034b9903737ba1030b71030b236b4b760511b6044820152606490fd5b60a0810190811067ffffffffffffffff82111761128c57604052565b67ffffffffffffffff811161128c57604052565b90601f8019910116810190811067ffffffffffffffff82111761128c57604052565b908060209392818452848401376000828201840152601f01601f1916010190565b6001600160a01b03161561144e57565b604051633efa09af60e01b8152600490fdfea164736f6c6343000813000a",
  "linkReferences": {},
  "deployedLinkReferences": {}
}