{
  "_format": "hh-sol-artifact-1",
  "contractName": "SeigManagerV1_Vote",
  "sourceName": "contracts/stake/managers/SeigManagerV1_Vote.sol",
  "abi": [
    {
      "inputs": [],
      "name": "InsufficientStaked",
      "type": "error"
    },
    {
      "inputs": [],
      "name": "InsufficientVotes",
      "type": "error"
    },
    {
      "inputs": [],
      "name": "NotVoteTokenError",
      "type": "error"
    },
    {
      "inputs": [],
      "name": "ZeroAmountError",
      "type": "error"
    },
    {
      "anonymous": false,
      "inputs": [
        {
          "indexed": false,
          "internalType": "address",
          "name": "account",
          "type": "address"
        },
        {
          "indexed": false,
          "internalType": "uint256",
          "name": "amount",
          "type": "uint256"
        }
      ],
      "name": "DecreasedVoteToken",
      "type": "event"
    },
    {
      "anonymous": false,
      "inputs": [
        {
          "indexed": false,
          "internalType": "address",
          "name": "account",
          "type": "address"
        },
        {
          "indexed": false,
          "internalType": "uint256",
          "name": "amount",
          "type": "uint256"
        }
      ],
      "name": "IncreasedVoteToken",
      "type": "event"
    },
    {
      "anonymous": false,
      "inputs": [
        {
          "indexed": true,
          "internalType": "bytes32",
          "name": "role",
          "type": "bytes32"
        },
        {
          "indexed": true,
          "internalType": "bytes32",
          "name": "previousAdminRole",
          "type": "bytes32"
        },
        {
          "indexed": true,
          "internalType": "bytes32",
          "name": "newAdminRole",
          "type": "bytes32"
        }
      ],
      "name": "RoleAdminChanged",
      "type": "event"
    },
    {
      "anonymous": false,
      "inputs": [
        {
          "indexed": true,
          "internalType": "bytes32",
          "name": "role",
          "type": "bytes32"
        },
        {
          "indexed": true,
          "internalType": "address",
          "name": "account",
          "type": "address"
        },
        {
          "indexed": true,
          "internalType": "address",
          "name": "sender",
          "type": "address"
        }
      ],
      "name": "RoleGranted",
      "type": "event"
    },
    {
      "anonymous": false,
      "inputs": [
        {
          "indexed": true,
          "internalType": "bytes32",
          "name": "role",
          "type": "bytes32"
        },
        {
          "indexed": true,
          "internalType": "address",
          "name": "account",
          "type": "address"
        },
        {
          "indexed": true,
          "internalType": "address",
          "name": "sender",
          "type": "address"
        }
      ],
      "name": "RoleRevoked",
      "type": "event"
    },
    {
      "anonymous": false,
      "inputs": [
        {
          "indexed": false,
          "internalType": "address",
          "name": "voteToken_",
          "type": "address"
        }
      ],
      "name": "SetVoteToken",
      "type": "event"
    },
    {
      "anonymous": false,
      "inputs": [
        {
          "indexed": false,
          "internalType": "uint256",
          "name": "coinageBurnAmount",
          "type": "uint256"
        },
        {
          "indexed": false,
          "internalType": "uint256",
          "name": "totBurnAmount",
          "type": "uint256"
        }
      ],
      "name": "UnstakeLog",
      "type": "event"
    },
    {
      "inputs": [],
      "name": "BURNT_AMOUNT_MAINNET",
      "outputs": [
        {
          "internalType": "uint256",
          "name": "",
          "type": "uint256"
        }
      ],
      "stateMutability": "view",
      "type": "function"
    },
    {
      "inputs": [],
      "name": "CHALLENGER_ROLE",
      "outputs": [
        {
          "internalType": "bytes32",
          "name": "",
          "type": "bytes32"
        }
      ],
      "stateMutability": "view",
      "type": "function"
    },
    {
      "inputs": [],
      "name": "DEFAULT_ADMIN_ROLE",
      "outputs": [
        {
          "internalType": "bytes32",
          "name": "",
          "type": "bytes32"
        }
      ],
      "stateMutability": "view",
      "type": "function"
    },
    {
      "inputs": [],
      "name": "INITIAL_TOTAL_SUPPLY_MAINNET",
      "outputs": [
        {
          "internalType": "uint256",
          "name": "",
          "type": "uint256"
        }
      ],
      "stateMutability": "view",
      "type": "function"
    },
    {
      "inputs": [],
      "name": "MAX_VALID_COMMISSION",
      "outputs": [
        {
          "internalType": "uint256",
          "name": "",
          "type": "uint256"
        }
      ],
      "stateMutability": "view",
      "type": "function"
    },
    {
      "inputs": [],
      "name": "MINTER_ROLE",
      "outputs": [
        {
          "internalType": "bytes32",
          "name": "",
          "type": "bytes32"
        }
      ],
      "stateMutability": "view",
      "type": "function"
    },
    {
      "inputs": [],
      "name": "MIN_VALID_COMMISSION",
      "outputs": [
        {
          "internalType": "uint256",
          "name": "",
          "type": "uint256"
        }
      ],
      "stateMutability": "view",
      "type": "function"
    },
    {
      "inputs": [],
      "name": "OPERATOR_ROLE",
      "outputs": [
        {
          "internalType": "bytes32",
          "name": "",
          "type": "bytes32"
        }
      ],
      "stateMutability": "view",
      "type": "function"
    },
    {
      "inputs": [],
      "name": "PAUSE_ROLE",
      "outputs": [
        {
          "internalType": "bytes32",
          "name": "",
          "type": "bytes32"
        }
      ],
      "stateMutability": "view",
      "type": "function"
    },
    {
      "inputs": [],
      "name": "RAY",
      "outputs": [
        {
          "internalType": "uint256",
          "name": "",
          "type": "uint256"
        }
      ],
      "stateMutability": "view",
      "type": "function"
    },
    {
      "inputs": [],
      "name": "SEIG_START_MAINNET",
      "outputs": [
        {
          "internalType": "uint256",
          "name": "",
          "type": "uint256"
        }
      ],
      "stateMutability": "view",
      "type": "function"
    },
    {
      "inputs": [],
      "name": "accRelativeSeig",
      "outputs": [
        {
          "internalType": "uint256",
          "name": "",
          "type": "uint256"
        }
      ],
      "stateMutability": "view",
      "type": "function"
    },
    {
      "inputs": [
        {
          "internalType": "address",
          "name": "account",
          "type": "address"
        }
      ],
      "name": "addAdmin",
      "outputs": [],
      "stateMutability": "nonpayable",
      "type": "function"
    },
    {
      "inputs": [
        {
          "internalType": "address",
          "name": "account",
          "type": "address"
        }
      ],
      "name": "addChallenger",
      "outputs": [],
      "stateMutability": "nonpayable",
      "type": "function"
    },
    {
      "inputs": [
        {
          "internalType": "address",
          "name": "account",
          "type": "address"
        }
      ],
      "name": "addMinter",
      "outputs": [],
      "stateMutability": "nonpayable",
      "type": "function"
    },
    {
      "inputs": [
        {
          "internalType": "address",
          "name": "account",
          "type": "address"
        }
      ],
      "name": "addOperator",
      "outputs": [],
      "stateMutability": "nonpayable",
      "type": "function"
    },
    {
      "inputs": [],
      "name": "adjustCommissionDelay",
      "outputs": [
        {
          "internalType": "uint256",
          "name": "",
          "type": "uint256"
        }
      ],
      "stateMutability": "view",
      "type": "function"
    },
    {
      "inputs": [
        {
          "internalType": "address",
          "name": "",
          "type": "address"
        }
      ],
      "name": "aliveImplementation",
      "outputs": [
        {
          "internalType": "bool",
          "name": "",
          "type": "bool"
        }
      ],
      "stateMutability": "view",
      "type": "function"
    },
    {
      "inputs": [
        {
          "internalType": "address",
          "name": "account",
          "type": "address"
        }
      ],
      "name": "availableRequestWithdraw",
      "outputs": [
        {
          "internalType": "uint256",
          "name": "amount",
          "type": "uint256"
        }
      ],
      "stateMutability": "view",
      "type": "function"
    },
    {
      "inputs": [],
      "name": "burntAmountAtDAO",
      "outputs": [
        {
          "internalType": "uint256",
          "name": "",
          "type": "uint256"
        }
      ],
      "stateMutability": "view",
      "type": "function"
    },
    {
      "inputs": [],
      "name": "dao",
      "outputs": [
        {
          "internalType": "address",
          "name": "",
          "type": "address"
        }
      ],
      "stateMutability": "view",
      "type": "function"
    },
    {
      "inputs": [],
      "name": "daoSeigRate",
      "outputs": [
        {
          "internalType": "uint256",
          "name": "",
          "type": "uint256"
        }
      ],
      "stateMutability": "view",
      "type": "function"
    },
    {
      "inputs": [
        {
          "internalType": "address",
          "name": "account",
          "type": "address"
        },
        {
          "internalType": "uint256",
          "name": "amount",
          "type": "uint256"
        }
      ],
      "name": "decreaseVoteToken",
      "outputs": [],
      "stateMutability": "nonpayable",
      "type": "function"
    },
    {
      "inputs": [
        {
          "internalType": "address",
          "name": "",
          "type": "address"
        }
      ],
      "name": "delayedCommissionBlock",
      "outputs": [
        {
          "internalType": "uint256",
          "name": "",
          "type": "uint256"
        }
      ],
      "stateMutability": "view",
      "type": "function"
    },
    {
      "inputs": [
        {
          "internalType": "address",
          "name": "",
          "type": "address"
        }
      ],
      "name": "delayedCommissionRate",
      "outputs": [
        {
          "internalType": "uint256",
          "name": "",
          "type": "uint256"
        }
      ],
      "stateMutability": "view",
      "type": "function"
    },
    {
      "inputs": [
        {
          "internalType": "address",
          "name": "",
          "type": "address"
        }
      ],
      "name": "delayedCommissionRateNegative",
      "outputs": [
        {
          "internalType": "bool",
          "name": "",
          "type": "bool"
        }
      ],
      "stateMutability": "view",
      "type": "function"
    },
    {
      "inputs": [],
      "name": "factory",
      "outputs": [
        {
          "internalType": "address",
          "name": "",
          "type": "address"
        }
      ],
      "stateMutability": "view",
      "type": "function"
    },
    {
      "inputs": [
        {
          "internalType": "bytes32",
          "name": "role",
          "type": "bytes32"
        }
      ],
      "name": "getRoleAdmin",
      "outputs": [
        {
          "internalType": "bytes32",
          "name": "",
          "type": "bytes32"
        }
      ],
      "stateMutability": "view",
      "type": "function"
    },
    {
      "inputs": [
        {
          "internalType": "bytes32",
          "name": "role",
          "type": "bytes32"
        },
        {
          "internalType": "address",
          "name": "account",
          "type": "address"
        }
      ],
      "name": "grantRole",
      "outputs": [],
      "stateMutability": "nonpayable",
      "type": "function"
    },
    {
      "inputs": [
        {
          "internalType": "bytes32",
          "name": "role",
          "type": "bytes32"
        },
        {
          "internalType": "address",
          "name": "account",
          "type": "address"
        }
      ],
      "name": "hasRole",
      "outputs": [
        {
          "internalType": "bool",
          "name": "",
          "type": "bool"
        }
      ],
      "stateMutability": "view",
      "type": "function"
    },
    {
      "inputs": [
        {
          "internalType": "address",
          "name": "account",
          "type": "address"
        },
        {
          "internalType": "uint256",
          "name": "amount",
          "type": "uint256"
        }
      ],
      "name": "increaseVoteToken",
      "outputs": [],
      "stateMutability": "nonpayable",
      "type": "function"
    },
    {
      "inputs": [],
      "name": "initialTotalSupply",
      "outputs": [
        {
          "internalType": "uint256",
          "name": "",
          "type": "uint256"
        }
      ],
      "stateMutability": "view",
      "type": "function"
    },
    {
      "inputs": [
        {
          "internalType": "address",
          "name": "account",
          "type": "address"
        }
      ],
      "name": "isAdmin",
      "outputs": [
        {
          "internalType": "bool",
          "name": "",
          "type": "bool"
        }
      ],
      "stateMutability": "view",
      "type": "function"
    },
    {
      "inputs": [
        {
          "internalType": "address",
          "name": "account",
          "type": "address"
        }
      ],
      "name": "isChallenger",
      "outputs": [
        {
          "internalType": "bool",
          "name": "",
          "type": "bool"
        }
      ],
      "stateMutability": "view",
      "type": "function"
    },
    {
      "inputs": [
        {
          "internalType": "address",
          "name": "account",
          "type": "address"
        }
      ],
      "name": "isMinter",
      "outputs": [
        {
          "internalType": "bool",
          "name": "",
          "type": "bool"
        }
      ],
      "stateMutability": "view",
      "type": "function"
    },
    {
      "inputs": [
        {
          "internalType": "address",
          "name": "account",
          "type": "address"
        }
      ],
      "name": "isOperator",
      "outputs": [
        {
          "internalType": "bool",
          "name": "",
          "type": "bool"
        }
      ],
      "stateMutability": "view",
      "type": "function"
    },
    {
      "inputs": [],
      "name": "isOwner",
      "outputs": [
        {
          "internalType": "bool",
          "name": "",
          "type": "bool"
        }
      ],
      "stateMutability": "view",
      "type": "function"
    },
    {
      "inputs": [],
      "name": "l2Registry",
      "outputs": [
        {
          "internalType": "address",
          "name": "",
          "type": "address"
        }
      ],
      "stateMutability": "view",
      "type": "function"
    },
    {
      "inputs": [],
      "name": "l2RewardPerUint",
      "outputs": [
        {
          "internalType": "uint256",
          "name": "",
          "type": "uint256"
        }
      ],
      "stateMutability": "view",
      "type": "function"
    },
    {
      "inputs": [],
      "name": "lastSnapshotId",
      "outputs": [
        {
          "internalType": "uint256",
          "name": "",
          "type": "uint256"
        }
      ],
      "stateMutability": "view",
      "type": "function"
    },
    {
      "inputs": [],
      "name": "layer2Manager",
      "outputs": [
        {
          "internalType": "address",
          "name": "",
          "type": "address"
        }
      ],
      "stateMutability": "view",
      "type": "function"
    },
    {
      "inputs": [
        {
          "internalType": "address",
          "name": "",
          "type": "address"
        }
      ],
      "name": "layer2RewardInfo",
      "outputs": [
        {
          "internalType": "uint256",
          "name": "layer2Tvl",
          "type": "uint256"
        },
        {
          "internalType": "uint256",
          "name": "initialDebt",
          "type": "uint256"
        }
      ],
      "stateMutability": "view",
      "type": "function"
    },
    {
      "inputs": [],
      "name": "layer2StartBlock",
      "outputs": [
        {
          "internalType": "uint256",
          "name": "",
          "type": "uint256"
        }
      ],
      "stateMutability": "view",
      "type": "function"
    },
    {
      "inputs": [],
      "name": "minimumAmount",
      "outputs": [
        {
          "internalType": "uint256",
          "name": "",
          "type": "uint256"
        }
      ],
      "stateMutability": "view",
      "type": "function"
    },
    {
      "inputs": [
        {
          "internalType": "address",
          "name": "layer2",
          "type": "address"
        },
        {
          "internalType": "address",
          "name": "account",
          "type": "address"
        },
        {
          "internalType": "uint256",
          "name": "amount",
          "type": "uint256"
        }
      ],
      "name": "onWithdraw",
      "outputs": [
        {
          "internalType": "bool",
          "name": "",
          "type": "bool"
        }
      ],
      "stateMutability": "nonpayable",
      "type": "function"
    },
    {
      "inputs": [],
      "name": "pauseProxy",
      "outputs": [
        {
          "internalType": "bool",
          "name": "",
          "type": "bool"
        }
      ],
      "stateMutability": "view",
      "type": "function"
    },
    {
      "inputs": [],
      "name": "paused",
      "outputs": [
        {
          "internalType": "bool",
          "name": "",
          "type": "bool"
        }
      ],
      "stateMutability": "view",
      "type": "function"
    },
    {
      "inputs": [],
      "name": "powerTONSeigRate",
      "outputs": [
        {
          "internalType": "uint256",
          "name": "",
          "type": "uint256"
        }
      ],
      "stateMutability": "view",
      "type": "function"
    },
    {
      "inputs": [
        {
          "internalType": "uint256",
          "name": "",
          "type": "uint256"
        }
      ],
      "name": "proxyImplementation",
      "outputs": [
        {
          "internalType": "address",
          "name": "",
          "type": "address"
        }
      ],
      "stateMutability": "view",
      "type": "function"
    },
    {
      "inputs": [],
      "name": "relativeSeigRate",
      "outputs": [
        {
          "internalType": "uint256",
          "name": "",
          "type": "uint256"
        }
      ],
      "stateMutability": "view",
      "type": "function"
    },
    {
      "inputs": [
        {
          "internalType": "address",
          "name": "account",
          "type": "address"
        }
      ],
      "name": "removeAdmin",
      "outputs": [],
      "stateMutability": "nonpayable",
      "type": "function"
    },
    {
      "inputs": [
        {
          "internalType": "address",
          "name": "account",
          "type": "address"
        }
      ],
      "name": "removeChallenger",
      "outputs": [],
      "stateMutability": "nonpayable",
      "type": "function"
    },
    {
      "inputs": [
        {
          "internalType": "address",
          "name": "account",
          "type": "address"
        }
      ],
      "name": "removeMinter",
      "outputs": [],
      "stateMutability": "nonpayable",
      "type": "function"
    },
    {
      "inputs": [
        {
          "internalType": "address",
          "name": "account",
          "type": "address"
        }
      ],
      "name": "removeOperator",
      "outputs": [],
      "stateMutability": "nonpayable",
      "type": "function"
    },
    {
      "inputs": [],
      "name": "renounceChallenger",
      "outputs": [],
      "stateMutability": "nonpayable",
      "type": "function"
    },
    {
      "inputs": [],
      "name": "renounceMinter",
      "outputs": [],
      "stateMutability": "nonpayable",
      "type": "function"
    },
    {
      "inputs": [],
      "name": "renounceOperator",
      "outputs": [],
      "stateMutability": "nonpayable",
      "type": "function"
    },
    {
      "inputs": [],
      "name": "renounceOwnership",
      "outputs": [],
      "stateMutability": "nonpayable",
      "type": "function"
    },
    {
      "inputs": [
        {
          "internalType": "bytes32",
          "name": "role",
          "type": "bytes32"
        },
        {
          "internalType": "address",
          "name": "account",
          "type": "address"
        }
      ],
      "name": "renounceRole",
      "outputs": [],
      "stateMutability": "nonpayable",
      "type": "function"
    },
    {
      "inputs": [
        {
          "internalType": "address",
          "name": "account",
          "type": "address"
        }
      ],
      "name": "revokeChallenger",
      "outputs": [],
      "stateMutability": "nonpayable",
      "type": "function"
    },
    {
      "inputs": [
        {
          "internalType": "address",
          "name": "account",
          "type": "address"
        }
      ],
      "name": "revokeMinter",
      "outputs": [],
      "stateMutability": "nonpayable",
      "type": "function"
    },
    {
      "inputs": [
        {
          "internalType": "address",
          "name": "account",
          "type": "address"
        }
      ],
      "name": "revokeOperator",
      "outputs": [],
      "stateMutability": "nonpayable",
      "type": "function"
    },
    {
      "inputs": [
        {
          "internalType": "bytes32",
          "name": "role",
          "type": "bytes32"
        },
        {
          "internalType": "address",
          "name": "account",
          "type": "address"
        }
      ],
      "name": "revokeRole",
      "outputs": [],
      "stateMutability": "nonpayable",
      "type": "function"
    },
    {
      "inputs": [],
      "name": "seigStartBlock",
      "outputs": [
        {
          "internalType": "uint256",
          "name": "",
          "type": "uint256"
        }
      ],
      "stateMutability": "view",
      "type": "function"
    },
    {
      "inputs": [
        {
          "internalType": "bytes4",
          "name": "",
          "type": "bytes4"
        }
      ],
      "name": "selectorImplementation",
      "outputs": [
        {
          "internalType": "address",
          "name": "",
          "type": "address"
        }
      ],
      "stateMutability": "view",
      "type": "function"
    },
    {
      "inputs": [
        {
          "internalType": "address",
          "name": "voteToken_",
          "type": "address"
        }
      ],
      "name": "setVoteToken",
      "outputs": [],
      "stateMutability": "nonpayable",
      "type": "function"
    },
    {
      "inputs": [
        {
          "internalType": "bytes4",
          "name": "interfaceId",
          "type": "bytes4"
        }
      ],
      "name": "supportsInterface",
      "outputs": [
        {
          "internalType": "bool",
          "name": "",
          "type": "bool"
        }
      ],
      "stateMutability": "view",
      "type": "function"
    },
    {
      "inputs": [],
      "name": "totalLayer2TVL",
      "outputs": [
        {
          "internalType": "uint256",
          "name": "",
          "type": "uint256"
        }
      ],
      "stateMutability": "view",
      "type": "function"
    },
    {
      "inputs": [],
      "name": "totalVotes",
      "outputs": [
        {
          "internalType": "uint256",
          "name": "",
          "type": "uint256"
        }
      ],
      "stateMutability": "view",
      "type": "function"
    },
    {
      "inputs": [
        {
          "internalType": "address",
          "name": "newAdmin",
          "type": "address"
        }
      ],
      "name": "transferAdmin",
      "outputs": [],
      "stateMutability": "nonpayable",
      "type": "function"
    },
    {
      "inputs": [
        {
          "internalType": "address",
          "name": "newAdmin",
          "type": "address"
        }
      ],
      "name": "transferOwnership",
      "outputs": [],
      "stateMutability": "nonpayable",
      "type": "function"
    },
    {
      "inputs": [],
      "name": "voteToken",
      "outputs": [
        {
          "internalType": "address",
          "name": "",
          "type": "address"
        }
      ],
      "stateMutability": "view",
      "type": "function"
    },
    {
      "inputs": [
        {
          "internalType": "address",
          "name": "",
          "type": "address"
        }
      ],
      "name": "votes",
      "outputs": [
        {
          "internalType": "uint256",
          "name": "",
          "type": "uint256"
        }
      ],
      "stateMutability": "view",
      "type": "function"
    }
  ],
  "bytecode": "0x6080806040523461001657612771908161001c8239f35b600080fdfe608060408181526004918236101561001657600080fd5b600092833560e01c91826301ffc9a7146119d3575081630ceb6780146119165781630d15fd77146118f7578163160d66ae146118ca57816316b5d5bd146118a15781631785f53c14611873578163248a9ca31461184857816324d7806c1461180257816325374a9a146117e357816325e90db4146117c95781632ab6f8db146117af5781632f2ff15d146117145781633092afd5146116e6578163311028af146116c757816336568abe14611635578163389ed267146115fa5781633c491173146115aa5781634123196f146113ea5781634162169f146115815781634631179e1461155857816346962c211461152b5781634d23aaa71461149a57816350d2a27614611456578163530adbb41461142d578163550d01a3146113ef578163552033c4146113ea5781635998a8d7146113cb5781635c975abb146113a75781635f6fb8b9146113655781636304a6241461134657816363a8fd8914611324578163661a6155146112875781636c578c1d146112595781636d70f7ae146112055781636e71186b146111e65781637048027514611143578163715018a61461111d57816375829def14611100578163837afbc0146110e25781638f32d59b146110af57816391d1485414611068578163983b2d56146110185781639865027514610ffe5781639870d7fe14610f4b578163a217fddf14610f30578163a415d8dc14610edc578163a7dcc85014610eb6578163aa271e1a14610e62578163ac753a7a14610e24578163ac8a584a14610df6578163acd848fa14610dcc578163b911135f14610d99578163bb0c829814610d7a578163bf7f473314610d5b578163c2e5dcc914610d32578163c45a015514610d09578163cbfebe6214610cd1578163cfbd488514610c22578163d0d2ff7014610c03578163d539139314610bda578163d547741f14610b9e578163d8bff5a514610b66578163d8c4796614610b48578163df7fbef014610b29578163e2fe8fd114610af1578163f2fde38b146109ad578163f5b541a614610984578163f77c4801146108a8578163f822934814610889578163f850ffaa1461044557508063f96032e614610427578063f9bae41a146104095763fad8b32a1461034857600080fd5b34610405576020908160031936011261040157610363611a53565b9061037561037033611aab565b612145565b600080516020612705833981519152928385526005815261039b60018387200154611ae8565b6000848152600582528281206001600160a01b039094168082529382528290205460ff166103c7578480f35b83600052600581528160002090836000525260002060ff1981541690553391600080516020612745833981519152600080a4388080808480f35b8280fd5b5080fd5b50346104055781600319360112610405576020906027549051908152f35b50346104055781600319360112610405576020906021549051908152f35b82843461062757606036600319011261062757610460611a53565b92610469611a6e565b6007546001600160a01b03956044359492918716330361084d5786811693848452602097600e8952808886205416156107f357858552600e89528088862054168851906370a0823160e01b918281528b81602481878b1695868a8301525afa90811561075057908a9189916107c2575b501061076a57886104e9876121d6565b101561075a57895163570ca73560e01b81528b8186818c5afa908115610750578c929185918a91610723575b50168114610659575b50505061052b87846123ce565b9581600d541661053b888a6120fb565b813b15610655578a5163079cc67960e41b8082526001600160a01b03909716868201908152602081019290925291889183919082908490829060400103925af1801561064b57610638575b508552600e8952878520541691823b156106345787519081526001600160a01b03909316908301908152602081018690528391839182908490829060400103925af1801561062a57908593929161060d575b50508151928352848301527f650f673bb96a43afff4620ecc3f3e38e0cbfddebde9894e951ba2ceff7472f6091a15160018152f35b8192935061061a90611e57565b61062757908184926105d8565b80fd5b85513d84823e3d90fd5b8480fd5b61064490969196611e57565b948a610586565b8a513d89823e3d90fd5b8780fd5b888852600e82526024848c8a205416938c5194859384928352888301525afa801561071957889087906106e4575b61069192506121c9565b601a54116106a15789898161051e565b875162461bcd60e51b81528083018a9052601a60248201527f6d696e696d756d20616d6f756e742069732072657175697265640000000000006044820152606490fd5b50508981813d8311610712575b6106fb8183611e81565b8101031261070e57876106919151610687565b8580fd5b503d6106f1565b89513d88823e3d90fd5b6107439150843d8611610749575b61073b8183611e81565b8101906123af565b8e610515565b503d610731565b8b513d8a823e3d90fd5b8951632360e66f60e21b81528490fd5b895162461bcd60e51b81528085018c9052602c60248201527f536569674d616e616765723a20696e73756666696369616e742062616c616e6360448201526b6520746f20756e7374616b6560a01b6064820152608490fd5b8092508d8092503d83116107ec575b6107db8183611e81565b81010312610655578990518d6104d9565b503d6107d1565b875162461bcd60e51b81528083018a9052602e60248201527f536569674d616e616765723a20636f696e61676520686173206e6f742062656560448201526d1b8819195c1b1bde5959081e595d60921b6064820152608490fd5b855162461bcd60e51b815260208186015260166024820152753737ba1037b7363ca232b837b9b4ba26b0b730b3b2b960511b6044820152606490fd5b505034610405578160031936011261040557602090601e549051908152f35b839150346104055782600319360112610405576108c3611a53565b602435916108cf61219d565b8215610976576001600160a01b038216808552602c60205285852054909190841161096857508394610962917ff69ce473bcb5e6d46cd770376d287b215055269baff993209dcb79c7945af96c9552602c6020528086206109318582546121c9565b905561093f84602b546121c9565b602b55516001600160a01b03909216825260208201929092529081906040820190565b0390a180f35b8551633048076b60e11b8152fd5b8451636e0ccc0760e01b8152fd5b505034610405578160031936011261040557602090516000805160206127058339815191528152f35b9190503461040157602080600319360112610aed576109ca611a53565b6109d661037033611aab565b6109e261037033611aab565b6001600160a01b0316928315610aac57833314610a72575083805260058152610a1060018386200154611ae8565b83805260058152818420838552815260ff828520541615610a39575b83610a3633611ea3565b80f35b8380526005815281842083855290528220805460ff191660011790553390826000805160206126c58339815191528180a4388080610a2c565b915162461bcd60e51b815291820152601660248201527520b1b1b2b9b9b4b136329d1039b0b6b29030b236b4b760511b6044820152606490fd5b915162461bcd60e51b815291820152601860248201527f41636365737369626c653a207a65726f206164647265737300000000000000006044820152606490fd5b8380fd5b5050346104055760203660031901126104055760209181906001600160a01b03610b19611a53565b1681526018845220549051908152f35b5050346104055781600319360112610405576020906016549051908152f35b5050346104055781600319360112610405576020905162a55ec28152f35b5050346104055760203660031901126104055760209181906001600160a01b03610b8e611a53565b168152602c845220549051908152f35b91905034610401578060031936011261040157610a369135610bd56001610bc3611a6e565b93838752600560205286200154611ae8565b6120ca565b505034610405578160031936011261040557602090516000805160206126e58339815191528152f35b5050346104055781600319360112610405576020906026549051908152f35b505034610405576020908160031936011261040157610c3f611a53565b90610c4c61037033611aab565b6000805160206126e58339815191529283855260058152610c7260018387200154611ae8565b838552600581528185206001600160a01b039093168086529281528185205460ff16610c9c578480f35b8385526005815281852083865290528320805460ff1916905533916000805160206127458339815191528480a4388080808480f35b5050346104055760203660031901126104055760209181906001600160a01b03610cf9611a53565b1681526017845220549051908152f35b505034610405578160031936011261040557600c5490516001600160a01b039091168152602090f35b50503461040557816003193601126104055760245490516001600160a01b039091168152602090f35b5050346104055781600319360112610405576020906023549051908152f35b505034610405578160031936011261040557602090601a549051908152f35b9050346104015760203660031901126104015735825260016020908152918190205490516001600160a01b039091168152f35b505034610405578160031936011261040557602090516e09a130b963a6c115c3c7f4000000008152f35b833461062757602036600319011261062757610a36610e13611a53565b610e1f61037033611aab565b612010565b5050346104055760203660031901126104055760209160ff9082906001600160a01b03610e4f611a53565b1681526019855220541690519015158152f35b5050346104055760203660031901126104055760ff81602093610e83611a53565b6000805160206126e58339815191528252600586528282206001600160a01b039091168252855220549151911615158152f35b505034610405578160031936011261040557602090516a084595161401484a0000008152f35b5050346104055760203660031901126104055760ff81602093610efd611a53565b6000805160206127258339815191528252600586528282206001600160a01b039091168252855220549151911615158152f35b50503461040557816003193601126104055751908152602090f35b505034610405576020908160031936011261040157610f68611a53565b90610f7561037033611aab565b6000805160206127058339815191529283855260058152610f9b60018387200154611ae8565b838552600581528185206001600160a01b039093168086529281528185205460ff1615610fc6578480f35b8385526005815281852083865290528320805460ff1916600117905533916000805160206126c58339815191528480a4388080808480f35b8334610627578060031936011261062757610a363361206d565b505034610405576020908160031936011261040157611035611a53565b9061104261037033611aab565b6000805160206126e58339815191529283855260058152610f9b60018387200154611ae8565b9050346104015781600319360112610401578160209360ff92611089611a6e565b90358252600586528282206001600160a01b039091168252855220549151911615158152f35b50503461040557816003193601126104055760ff8183806020955260058552818120338252855220541690519015158152f35b50503461040557816003193601126104055760209081549051908152f35b9190503461040157602080600319360112610aed576109d6611a53565b833461062757806003193601126106275761113a61037033611aab565b610a3633611ea3565b505034610405576020908160031936011261040157611160611a53565b9161116d61037033611aab565b8380526005815261118360018386200154611ae8565b838052600581528184206001600160a01b039093168085529281528184205460ff16156111ae578380f35b8380526005815281842083855290528220805460ff191660011790553390826000805160206126c58339815191528180a43880808380f35b5050346104055781600319360112610405576020906028549051908152f35b5050346104055760203660031901126104055760ff81602093611226611a53565b6000805160206127058339815191528252600586528282206001600160a01b039091168252855220549151911615158152f35b833461062757602036600319011261062757610a36611276611a53565b61128261037033611aab565b611f80565b839150346104055782600319360112610405576112a2611a53565b602435916112ae61219d565b8215610976576112bd826121d6565b831161131657506109627fbfd59e0bf4c3c12433199ed609bda5a373f90a5eeed31ed4fc5594cd469d97ed939460018060a01b0383168652602c6020528086206113088582546120fb565b905561093f84602b546120fb565b8451632360e66f60e21b8152fd5b50503461040557816003193601126104055760ff602092541690519015158152f35b505034610405578160031936011261040557602090601b549051908152f35b505034610405576020366003190112610405579081906001600160a01b0361138b611a53565b1681526029602052206001815491015482519182526020820152f35b50503461040557816003193601126104055760209060ff601f541690519015158152f35b505034610405578160031936011261040557602090601c549051908152f35b611a84565b5050346104055760203660031901126104055760209160ff9082906001600160a01b0361141a611a53565b1681526002855220541690519015158152f35b505034610405578160031936011261040557602090516000805160206127258339815191528152f35b905034610401576020366003190112610401573563ffffffff60e01b811680910361040157825260036020908152918190205490516001600160a01b039091168152f35b5050346104055760203660031901126104055760207f08c652cbedb8495787e3c920e5112e52e119ad8eafdc3b8848466f99e50c3f91916114d9611a53565b908480526005835280852033865283526114f860ff8287205416612145565b602a8054610100600160a81b031916600884901b610100600160a81b0316179055516001600160a01b039091168152a180f35b5050346104055760203660031901126104055760209061155161154c611a53565b6121d6565b9051908152f35b505034610405578160031936011261040557602090516d08c815d5bcc20177de3b5d2500008152f35b50503461040557816003193601126104055760095490516001600160a01b039091168152602090f35b5050346104055760209081600319360112610401576115c7611a53565b906115d461037033611aab565b6000805160206127258339815191529283855260058152610c7260018387200154611ae8565b505034610405578160031936011261040557602090517ffcb9fcbfa83b897fb2d5cf4b58962164105c1e71489a37ef3ae0db3fdce576f68152f35b83915034610405578260031936011261040557611650611a6e565b90336001600160a01b0383160361166c5790610a3691356120ca565b608490602085519162461bcd60e51b8352820152602f60248201527f416363657373436f6e74726f6c3a2063616e206f6e6c792072656e6f756e636560448201526e103937b632b9903337b91039b2b63360891b6064820152fd5b5050346104055781600319360112610405576020906022549051908152f35b833461062757602036600319011261062757610a36611703611a53565b61170f61037033611aab565b61206d565b9050346104015781600319360112610401573590611730611a6e565b90828452600560205261174860018286200154611ae8565b828452600560209081528185206001600160a01b039093168086529290528084205460ff1615611776578380f35b82845260056020528084208285526020528320600160ff1982541617905533916000805160206126c58339815191528480a43880808380f35b8334610627578060031936011261062757610a3633612010565b8334610627578060031936011261062757610a3633611f80565b505034610405578160031936011261040557602090601d549051908152f35b5050346104055760203660031901126104055760ff81602093611823611a53565b818052600586528282206001600160a01b039091168252855220549151911615158152f35b9050346104015760203660031901126104015781602093600192358152600585522001549051908152f35b833461062757602036600319011261062757610a36611890611a53565b61189c61037033611aab565b611ea3565b50503461040557816003193601126104055760255490516001600160a01b039091168152602090f35b505034610405578160031936011261040557602a54905160089190911c6001600160a01b03168152602090f35b505034610405578160031936011261040557602090602b549051908152f35b9050346104015760209182600319360112610aed57611933611a53565b9161193d33611aab565b80156119a9575b1561197057506000805160206127258339815191529283855260058152610f9b60018387200154611ae8565b83606492519162461bcd60e51b835282015260156024820152743737ba1037b7363ca6b4b73a32b927b920b236b4b760591b6044820152fd5b506000805160206126e5833981519152855260058452818520338652845260ff8286205416611944565b84918434610aed576020366003190112610aed5781359063ffffffff60e01b821680920361063457602094637965db0b60e01b8314938415611a1a575b5050505015158152f35b6301ffc9a760e01b8414945091929091908415611a3f575b5050505083808080611a10565b60ff94508252855220541683808080611a32565b600435906001600160a01b0382168203611a6957565b600080fd5b602435906001600160a01b0382168203611a6957565b34611a69576000366003190112611a695760206040516b033b2e3c9fd0803ce80000008152f35b6001600160a01b031660009081527f05b8ccbb9d4d8fb16ea74ce3c29a41f1b461fbdaff4714a0d9a8eb05499746bc602052604090205460ff1690565b60009080825260209060058252604090818420338552835260ff828520541615611b125750505050565b81519367ffffffffffffffff336060870182811188821017611e20578552602a87528587019385368637875115611e0c5760308553875191600192831015611df857607860218a015360295b838111611d8e5750611d4c5790855192608084019084821090821117611d3857865260428352868301936060368637835115611d2457603085538351821015611d245790607860218501536041915b818311611cb657505050611c745792611c426048611c339794611c66946044989785519a8b93611c0a8b86019a7f416363657373436f6e74726f6c3a206163636f756e74200000000000000000008c525180926037880190611e34565b8401917001034b99036b4b9b9b4b733903937b6329607d1b603784015251809386840190611e34565b01036028810189520187611e81565b5194859362461bcd60e51b8552600485015251809281602486015285850190611e34565b601f01601f19168101030190fd5b60648585519062461bcd60e51b825280600483015260248201527f537472696e67733a20686578206c656e67746820696e73756666696369656e746044820152fd5b909192600f81166010811015611d10576f181899199a1a9b1b9c1cb0b131b232b360811b901a611ce6858761211e565b5360041c928015611cfc57600019019190611bad565b634e487b7160e01b82526011600452602482fd5b634e487b7160e01b83526032600452602483fd5b634e487b7160e01b81526032600452602490fd5b634e487b7160e01b85526041600452602485fd5b60648787519062461bcd60e51b825280600483015260248201527f537472696e67733a20686578206c656e67746820696e73756666696369656e746044820152fd5b90600f81166010811015611de4576f181899199a1a9b1b9c1cb0b131b232b360811b901a611dbc838c61211e565b5360041c908015611dd05760001901611b5e565b634e487b7160e01b86526011600452602486fd5b634e487b7160e01b87526032600452602487fd5b634e487b7160e01b85526032600452602485fd5b634e487b7160e01b84526032600452602484fd5b634e487b7160e01b84526041600452602484fd5b60005b838110611e475750506000910152565b8181015183820152602001611e37565b67ffffffffffffffff8111611e6b57604052565b634e487b7160e01b600052604160045260246000fd5b90601f8019910116810190811067ffffffffffffffff821117611e6b57604052565b6001600160a01b0316338103611f235760008181527f05b8ccbb9d4d8fb16ea74ce3c29a41f1b461fbdaff4714a0d9a8eb05499746bc602052604081205490919060ff16611eef575050565b8180526005602052604082208183526020526040822060ff19815416905533916000805160206127458339815191528180a4565b60405162461bcd60e51b815260206004820152602f60248201527f416363657373436f6e74726f6c3a2063616e206f6e6c792072656e6f756e636560448201526e103937b632b9903337b91039b2b63360891b6064820152608490fd5b6001600160a01b0316338103611f235760008181527fedec71783a10810e436f3392a073a61717130e573433fcc6591c3061a012f76760205260408120549091906000805160206127258339815191529060ff16611fdd57505050565b8083526005602052604083208284526020526040832060ff198154169055600080516020612745833981519152339380a4565b6001600160a01b0316338103611f235760008181527f02634a7c777b8129955fe1824eee49ef19dfa96f2f4cb63212492c3d84eb58e660205260408120549091906000805160206127058339815191529060ff16611fdd57505050565b6001600160a01b0316338103611f235760008181527fca0a2f641ec05ca23127d994cf03ffc453db616acae0b86cb56bb95304d0685460205260408120549091906000805160206126e58339815191529060ff16611fdd57505050565b906000918083526005602052604083209160018060a01b03169182845260205260ff604084205416611fdd57505050565b9190820180921161210857565b634e487b7160e01b600052601160045260246000fd5b90815181101561212f570160200190565b634e487b7160e01b600052603260045260246000fd5b1561214c57565b60405162461bcd60e51b815260206004820152602360248201527f41757468436f6e74726f6c3a2043616c6c6572206973206e6f7420616e20616460448201526236b4b760e91b6064820152608490fd5b602a5460081c6001600160a01b031633036121b457565b6040516001620f43f160e31b03198152600490fd5b9190820391821161210857565b60065460408051630d42d49760e01b81526001600160a01b0394936000939091602091600490881683838381845afa9283156123a5578793612372575b50919086925b8284106122715750505050839584612233575b5050505050565b602c921660005252600020549081811015600014612262575061225691926121c9565b905b388080808061222c565b11156122585760009150612258565b90919296865163b7ffb17960e01b8152888482015260249086818381875afa90811561236757908c9160009161234a575b5016600052600e8652858b808a6000205416928a51809481936370a0823160e01b83528c16898301525afa90811561233f57600091612310575b506122e6916120fb565b9660001981146122fb57600101929190612219565b601183634e487b7160e01b6000525260246000fd5b908682813d8311612338575b6123268183611e81565b810103126106275750516122e66122dc565b503d61231c565b88513d6000823e3d90fd5b6123619150883d8a116107495761073b8183611e81565b386122a2565b89513d6000823e3d90fd5b9092508381813d831161239e575b61238a8183611e81565b8101031261239a57519138612213565b8680fd5b503d612380565b86513d89823e3d90fd5b90816020910312611a6957516001600160a01b0381168103611a695790565b6001600160a01b039081166000818152600e602090815260408083205481516318160ddd60e01b81529197969195939460049490939291839088908790829085165afa968715610719578697612675575b50600d541692828951809581936370a0823160e01b83528883015260249687915afa908115610719578691612648575b50808710158061262e575b6126235786612468916121c9565b859180159182156125eb575b5050156125b2576b019d971e4fe8401e740000008101908181116125a0578110612567576b033b2e3c9fd0803ce80000008091049080820295828704821483151715612555575085040361251e576124cf8560011c856120fb565b9384106124e7575050506124e49293506126a4565b90565b865162461bcd60e51b8152928301526014908201527364732d6d6174682d6164642d6f766572666c6f7760601b6044820152606490fd5b865162461bcd60e51b8152928301526014908201527364732d6d6174682d6d756c2d6f766572666c6f7760601b6044820152606490fd5b634e487b7160e01b8152601186528490fd5b875162461bcd60e51b81528085018390526014818501527364732d6d6174682d6164642d6f766572666c6f7760601b6044820152606490fd5b634e487b7160e01b8652601185528386fd5b875162461bcd60e51b81528085018390526014818501527364732d6d6174682d6d756c2d6f766572666c6f7760601b6044820152606490fd5b808202935091508115828404821417156126115761260990836126a4565b143880612474565b634e487b7160e01b8752601186528487fd5b509396505050505050565b50670de0b6b3a764000061264282896121c9565b1061245a565b90508281813d831161266e575b61265f8183611e81565b8101031261070e57513861244f565b503d612655565b9096508281813d831161269d575b61268d8183611e81565b8101031261070e5751953861241f565b503d612683565b81156126ae570490565b634e487b7160e01b600052601260045260246000fdfe2f8788117e7eff1d82e926ec794901d17c78024a50270940304540a733656f0df0887ba65ee2024ea881d91b74c2450ef19e1557f03bed3ea9f16b037cbe2dc9523a704056dcd17bcf83bed8b68c59416dac1119be77755efe3bde0a64e46e0cbf02bad7114723a857a3af46cea17b778a3a951c96f183784d9a2448cc479ab6f6391f5c32d9c69d2a47ea670b442974b53935d1edc7fd64eb21e047a839171ba164736f6c6343000813000a",
  "linkReferences": {},
  "deployedLinkReferences": {}
}