{
  "_format": "hh-sol-artifact-1",
  "contractName": "TokamakGovernorUpgradeV1",
  "sourceName": "contracts/TokamakGovernorUpgradeV1.sol",
  "abi": [
    {
      "inputs": [],
      "stateMutability": "nonpayable",
      "type": "constructor"
    },
    {
      "inputs": [],
      "name": "CheckpointUnorderedInsertion",
      "type": "error"
    },
    {
      "inputs": [],
      "name": "FailedInnerCall",
      "type": "error"
    },
    {
      "inputs": [
        {
          "internalType": "address",
          "name": "voter",
          "type": "address"
        }
      ],
      "name": "GovernorAlreadyCastVote",
      "type": "error"
    },
    {
      "inputs": [
        {
          "internalType": "uint256",
          "name": "proposalId",
          "type": "uint256"
        }
      ],
      "name": "GovernorAlreadyQueuedProposal",
      "type": "error"
    },
    {
      "inputs": [],
      "name": "GovernorDisabledDeposit",
      "type": "error"
    },
    {
      "inputs": [
        {
          "internalType": "address",
          "name": "proposer",
          "type": "address"
        },
        {
          "internalType": "uint256",
          "name": "votes",
          "type": "uint256"
        },
        {
          "internalType": "uint256",
          "name": "threshold",
          "type": "uint256"
        }
      ],
      "name": "GovernorInsufficientProposerVotes",
      "type": "error"
    },
    {
      "inputs": [
        {
          "internalType": "uint256",
          "name": "targets",
          "type": "uint256"
        },
        {
          "internalType": "uint256",
          "name": "calldatas",
          "type": "uint256"
        },
        {
          "internalType": "uint256",
          "name": "values",
          "type": "uint256"
        }
      ],
      "name": "GovernorInvalidProposalLength",
      "type": "error"
    },
    {
      "inputs": [
        {
          "internalType": "uint256",
          "name": "quorumNumerator",
          "type": "uint256"
        },
        {
          "internalType": "uint256",
          "name": "quorumDenominator",
          "type": "uint256"
        }
      ],
      "name": "GovernorInvalidQuorumFraction",
      "type": "error"
    },
    {
      "inputs": [
        {
          "internalType": "address",
          "name": "voter",
          "type": "address"
        }
      ],
      "name": "GovernorInvalidSignature",
      "type": "error"
    },
    {
      "inputs": [],
      "name": "GovernorInvalidVoteType",
      "type": "error"
    },
    {
      "inputs": [
        {
          "internalType": "uint256",
          "name": "votingPeriod",
          "type": "uint256"
        }
      ],
      "name": "GovernorInvalidVotingPeriod",
      "type": "error"
    },
    {
      "inputs": [
        {
          "internalType": "uint256",
          "name": "proposalId",
          "type": "uint256"
        }
      ],
      "name": "GovernorNonexistentProposal",
      "type": "error"
    },
    {
      "inputs": [
        {
          "internalType": "uint256",
          "name": "proposalId",
          "type": "uint256"
        }
      ],
      "name": "GovernorNotQueuedProposal",
      "type": "error"
    },
    {
      "inputs": [
        {
          "internalType": "address",
          "name": "account",
          "type": "address"
        }
      ],
      "name": "GovernorOnlyExecutor",
      "type": "error"
    },
    {
      "inputs": [
        {
          "internalType": "address",
          "name": "account",
          "type": "address"
        }
      ],
      "name": "GovernorOnlyProposer",
      "type": "error"
    },
    {
      "inputs": [],
      "name": "GovernorQueueNotImplemented",
      "type": "error"
    },
    {
      "inputs": [
        {
          "internalType": "address",
          "name": "proposer",
          "type": "address"
        }
      ],
      "name": "GovernorRestrictedProposer",
      "type": "error"
    },
    {
      "inputs": [
        {
          "internalType": "uint256",
          "name": "proposalId",
          "type": "uint256"
        },
        {
          "internalType": "enum IGovernor.ProposalState",
          "name": "current",
          "type": "uint8"
        },
        {
          "internalType": "bytes32",
          "name": "expectedStates",
          "type": "bytes32"
        }
      ],
      "name": "GovernorUnexpectedProposalState",
      "type": "error"
    },
    {
      "inputs": [
        {
          "internalType": "address",
          "name": "account",
          "type": "address"
        },
        {
          "internalType": "uint256",
          "name": "currentNonce",
          "type": "uint256"
        }
      ],
      "name": "InvalidAccountNonce",
      "type": "error"
    },
    {
      "inputs": [],
      "name": "InvalidInitialization",
      "type": "error"
    },
    {
      "inputs": [],
      "name": "NotInitializing",
      "type": "error"
    },
    {
      "inputs": [],
      "name": "QueueEmpty",
      "type": "error"
    },
    {
      "inputs": [],
      "name": "QueueFull",
      "type": "error"
    },
    {
      "inputs": [
        {
          "internalType": "uint8",
          "name": "bits",
          "type": "uint8"
        },
        {
          "internalType": "uint256",
          "name": "value",
          "type": "uint256"
        }
      ],
      "name": "SafeCastOverflowedUintDowncast",
      "type": "error"
    },
    {
      "anonymous": false,
      "inputs": [],
      "name": "EIP712DomainChanged",
      "type": "event"
    },
    {
      "anonymous": false,
      "inputs": [
        {
          "indexed": false,
          "internalType": "uint64",
          "name": "version",
          "type": "uint64"
        }
      ],
      "name": "Initialized",
      "type": "event"
    },
    {
      "anonymous": false,
      "inputs": [
        {
          "indexed": false,
          "internalType": "uint64",
          "name": "oldVoteExtension",
          "type": "uint64"
        },
        {
          "indexed": false,
          "internalType": "uint64",
          "name": "newVoteExtension",
          "type": "uint64"
        }
      ],
      "name": "LateQuorumVoteExtensionSet",
      "type": "event"
    },
    {
      "anonymous": false,
      "inputs": [
        {
          "indexed": false,
          "internalType": "uint256",
          "name": "proposalId",
          "type": "uint256"
        }
      ],
      "name": "ProposalCanceled",
      "type": "event"
    },
    {
      "anonymous": false,
      "inputs": [
        {
          "indexed": false,
          "internalType": "uint256",
          "name": "proposalId",
          "type": "uint256"
        },
        {
          "indexed": false,
          "internalType": "address",
          "name": "proposer",
          "type": "address"
        },
        {
          "indexed": false,
          "internalType": "address[]",
          "name": "targets",
          "type": "address[]"
        },
        {
          "indexed": false,
          "internalType": "uint256[]",
          "name": "values",
          "type": "uint256[]"
        },
        {
          "indexed": false,
          "internalType": "string[]",
          "name": "signatures",
          "type": "string[]"
        },
        {
          "indexed": false,
          "internalType": "bytes[]",
          "name": "calldatas",
          "type": "bytes[]"
        },
        {
          "indexed": false,
          "internalType": "uint256",
          "name": "voteStart",
          "type": "uint256"
        },
        {
          "indexed": false,
          "internalType": "uint256",
          "name": "voteEnd",
          "type": "uint256"
        },
        {
          "indexed": false,
          "internalType": "string",
          "name": "description",
          "type": "string"
        }
      ],
      "name": "ProposalCreated",
      "type": "event"
    },
    {
      "anonymous": false,
      "inputs": [
        {
          "indexed": false,
          "internalType": "uint256",
          "name": "proposalId",
          "type": "uint256"
        }
      ],
      "name": "ProposalExecuted",
      "type": "event"
    },
    {
      "anonymous": false,
      "inputs": [
        {
          "indexed": true,
          "internalType": "uint256",
          "name": "proposalId",
          "type": "uint256"
        },
        {
          "indexed": false,
          "internalType": "uint64",
          "name": "extendedDeadline",
          "type": "uint64"
        }
      ],
      "name": "ProposalExtended",
      "type": "event"
    },
    {
      "anonymous": false,
      "inputs": [
        {
          "indexed": false,
          "internalType": "uint256",
          "name": "proposalId",
          "type": "uint256"
        },
        {
          "indexed": false,
          "internalType": "uint256",
          "name": "etaSeconds",
          "type": "uint256"
        }
      ],
      "name": "ProposalQueued",
      "type": "event"
    },
    {
      "anonymous": false,
      "inputs": [
        {
          "indexed": false,
          "internalType": "uint256",
          "name": "oldProposalThreshold",
          "type": "uint256"
        },
        {
          "indexed": false,
          "internalType": "uint256",
          "name": "newProposalThreshold",
          "type": "uint256"
        }
      ],
      "name": "ProposalThresholdSet",
      "type": "event"
    },
    {
      "anonymous": false,
      "inputs": [
        {
          "indexed": false,
          "internalType": "uint256",
          "name": "oldQuorumNumerator",
          "type": "uint256"
        },
        {
          "indexed": false,
          "internalType": "uint256",
          "name": "newQuorumNumerator",
          "type": "uint256"
        }
      ],
      "name": "QuorumNumeratorUpdated",
      "type": "event"
    },
    {
      "anonymous": false,
      "inputs": [
        {
          "indexed": false,
          "internalType": "address",
          "name": "oldTimelock",
          "type": "address"
        },
        {
          "indexed": false,
          "internalType": "address",
          "name": "newTimelock",
          "type": "address"
        }
      ],
      "name": "TimelockChange",
      "type": "event"
    },
    {
      "anonymous": false,
      "inputs": [
        {
          "indexed": true,
          "internalType": "address",
          "name": "voter",
          "type": "address"
        },
        {
          "indexed": false,
          "internalType": "uint256",
          "name": "proposalId",
          "type": "uint256"
        },
        {
          "indexed": false,
          "internalType": "uint8",
          "name": "support",
          "type": "uint8"
        },
        {
          "indexed": false,
          "internalType": "uint256",
          "name": "weight",
          "type": "uint256"
        },
        {
          "indexed": false,
          "internalType": "string",
          "name": "reason",
          "type": "string"
        }
      ],
      "name": "VoteCast",
      "type": "event"
    },
    {
      "anonymous": false,
      "inputs": [
        {
          "indexed": true,
          "internalType": "address",
          "name": "voter",
          "type": "address"
        },
        {
          "indexed": false,
          "internalType": "uint256",
          "name": "proposalId",
          "type": "uint256"
        },
        {
          "indexed": false,
          "internalType": "uint8",
          "name": "support",
          "type": "uint8"
        },
        {
          "indexed": false,
          "internalType": "uint256",
          "name": "weight",
          "type": "uint256"
        },
        {
          "indexed": false,
          "internalType": "string",
          "name": "reason",
          "type": "string"
        },
        {
          "indexed": false,
          "internalType": "bytes",
          "name": "params",
          "type": "bytes"
        }
      ],
      "name": "VoteCastWithParams",
      "type": "event"
    },
    {
      "anonymous": false,
      "inputs": [
        {
          "indexed": false,
          "internalType": "uint256",
          "name": "oldVotingDelay",
          "type": "uint256"
        },
        {
          "indexed": false,
          "internalType": "uint256",
          "name": "newVotingDelay",
          "type": "uint256"
        }
      ],
      "name": "VotingDelaySet",
      "type": "event"
    },
    {
      "anonymous": false,
      "inputs": [
        {
          "indexed": false,
          "internalType": "uint256",
          "name": "oldVotingPeriod",
          "type": "uint256"
        },
        {
          "indexed": false,
          "internalType": "uint256",
          "name": "newVotingPeriod",
          "type": "uint256"
        }
      ],
      "name": "VotingPeriodSet",
      "type": "event"
    },
    {
      "inputs": [],
      "name": "BALLOT_TYPEHASH",
      "outputs": [
        {
          "internalType": "bytes32",
          "name": "",
          "type": "bytes32"
        }
      ],
      "stateMutability": "view",
      "type": "function"
    },
    {
      "inputs": [],
      "name": "CLOCK_MODE",
      "outputs": [
        {
          "internalType": "string",
          "name": "",
          "type": "string"
        }
      ],
      "stateMutability": "view",
      "type": "function"
    },
    {
      "inputs": [],
      "name": "COUNTING_MODE",
      "outputs": [
        {
          "internalType": "string",
          "name": "",
          "type": "string"
        }
      ],
      "stateMutability": "pure",
      "type": "function"
    },
    {
      "inputs": [],
      "name": "EXTENDED_BALLOT_TYPEHASH",
      "outputs": [
        {
          "internalType": "bytes32",
          "name": "",
          "type": "bytes32"
        }
      ],
      "stateMutability": "view",
      "type": "function"
    },
    {
      "inputs": [
        {
          "internalType": "address[]",
          "name": "targets",
          "type": "address[]"
        },
        {
          "internalType": "uint256[]",
          "name": "values",
          "type": "uint256[]"
        },
        {
          "internalType": "bytes[]",
          "name": "calldatas",
          "type": "bytes[]"
        },
        {
          "internalType": "bytes32",
          "name": "descriptionHash",
          "type": "bytes32"
        }
      ],
      "name": "cancel",
      "outputs": [
        {
          "internalType": "uint256",
          "name": "",
          "type": "uint256"
        }
      ],
      "stateMutability": "nonpayable",
      "type": "function"
    },
    {
      "inputs": [
        {
          "internalType": "uint256",
          "name": "proposalId",
          "type": "uint256"
        },
        {
          "internalType": "uint8",
          "name": "support",
          "type": "uint8"
        }
      ],
      "name": "castVote",
      "outputs": [
        {
          "internalType": "uint256",
          "name": "",
          "type": "uint256"
        }
      ],
      "stateMutability": "nonpayable",
      "type": "function"
    },
    {
      "inputs": [
        {
          "internalType": "uint256",
          "name": "proposalId",
          "type": "uint256"
        },
        {
          "internalType": "uint8",
          "name": "support",
          "type": "uint8"
        },
        {
          "internalType": "address",
          "name": "voter",
          "type": "address"
        },
        {
          "internalType": "bytes",
          "name": "signature",
          "type": "bytes"
        }
      ],
      "name": "castVoteBySig",
      "outputs": [
        {
          "internalType": "uint256",
          "name": "",
          "type": "uint256"
        }
      ],
      "stateMutability": "nonpayable",
      "type": "function"
    },
    {
      "inputs": [
        {
          "internalType": "uint256",
          "name": "proposalId",
          "type": "uint256"
        },
        {
          "internalType": "uint8",
          "name": "support",
          "type": "uint8"
        },
        {
          "internalType": "string",
          "name": "reason",
          "type": "string"
        }
      ],
      "name": "castVoteWithReason",
      "outputs": [
        {
          "internalType": "uint256",
          "name": "",
          "type": "uint256"
        }
      ],
      "stateMutability": "nonpayable",
      "type": "function"
    },
    {
      "inputs": [
        {
          "internalType": "uint256",
          "name": "proposalId",
          "type": "uint256"
        },
        {
          "internalType": "uint8",
          "name": "support",
          "type": "uint8"
        },
        {
          "internalType": "string",
          "name": "reason",
          "type": "string"
        },
        {
          "internalType": "bytes",
          "name": "params",
          "type": "bytes"
        }
      ],
      "name": "castVoteWithReasonAndParams",
      "outputs": [
        {
          "internalType": "uint256",
          "name": "",
          "type": "uint256"
        }
      ],
      "stateMutability": "nonpayable",
      "type": "function"
    },
    {
      "inputs": [
        {
          "internalType": "uint256",
          "name": "proposalId",
          "type": "uint256"
        },
        {
          "internalType": "uint8",
          "name": "support",
          "type": "uint8"
        },
        {
          "internalType": "address",
          "name": "voter",
          "type": "address"
        },
        {
          "internalType": "string",
          "name": "reason",
          "type": "string"
        },
        {
          "internalType": "bytes",
          "name": "params",
          "type": "bytes"
        },
        {
          "internalType": "bytes",
          "name": "signature",
          "type": "bytes"
        }
      ],
      "name": "castVoteWithReasonAndParamsBySig",
      "outputs": [
        {
          "internalType": "uint256",
          "name": "",
          "type": "uint256"
        }
      ],
      "stateMutability": "nonpayable",
      "type": "function"
    },
    {
      "inputs": [],
      "name": "clock",
      "outputs": [
        {
          "internalType": "uint48",
          "name": "",
          "type": "uint48"
        }
      ],
      "stateMutability": "view",
      "type": "function"
    },
    {
      "inputs": [],
      "name": "eip712Domain",
      "outputs": [
        {
          "internalType": "bytes1",
          "name": "fields",
          "type": "bytes1"
        },
        {
          "internalType": "string",
          "name": "name",
          "type": "string"
        },
        {
          "internalType": "string",
          "name": "version",
          "type": "string"
        },
        {
          "internalType": "uint256",
          "name": "chainId",
          "type": "uint256"
        },
        {
          "internalType": "address",
          "name": "verifyingContract",
          "type": "address"
        },
        {
          "internalType": "bytes32",
          "name": "salt",
          "type": "bytes32"
        },
        {
          "internalType": "uint256[]",
          "name": "extensions",
          "type": "uint256[]"
        }
      ],
      "stateMutability": "view",
      "type": "function"
    },
    {
      "inputs": [
        {
          "internalType": "address[]",
          "name": "targets",
          "type": "address[]"
        },
        {
          "internalType": "uint256[]",
          "name": "values",
          "type": "uint256[]"
        },
        {
          "internalType": "bytes[]",
          "name": "calldatas",
          "type": "bytes[]"
        },
        {
          "internalType": "bytes32",
          "name": "descriptionHash",
          "type": "bytes32"
        }
      ],
      "name": "execute",
      "outputs": [
        {
          "internalType": "uint256",
          "name": "",
          "type": "uint256"
        }
      ],
      "stateMutability": "payable",
      "type": "function"
    },
    {
      "inputs": [
        {
          "internalType": "address",
          "name": "account",
          "type": "address"
        },
        {
          "internalType": "uint256",
          "name": "timepoint",
          "type": "uint256"
        }
      ],
      "name": "getVotes",
      "outputs": [
        {
          "internalType": "uint256",
          "name": "",
          "type": "uint256"
        }
      ],
      "stateMutability": "view",
      "type": "function"
    },
    {
      "inputs": [
        {
          "internalType": "address",
          "name": "account",
          "type": "address"
        },
        {
          "internalType": "uint256",
          "name": "timepoint",
          "type": "uint256"
        },
        {
          "internalType": "bytes",
          "name": "params",
          "type": "bytes"
        }
      ],
      "name": "getVotesWithParams",
      "outputs": [
        {
          "internalType": "uint256",
          "name": "",
          "type": "uint256"
        }
      ],
      "stateMutability": "view",
      "type": "function"
    },
    {
      "inputs": [
        {
          "internalType": "uint256",
          "name": "proposalId",
          "type": "uint256"
        },
        {
          "internalType": "address",
          "name": "account",
          "type": "address"
        }
      ],
      "name": "hasVoted",
      "outputs": [
        {
          "internalType": "bool",
          "name": "",
          "type": "bool"
        }
      ],
      "stateMutability": "view",
      "type": "function"
    },
    {
      "inputs": [
        {
          "internalType": "address[]",
          "name": "targets",
          "type": "address[]"
        },
        {
          "internalType": "uint256[]",
          "name": "values",
          "type": "uint256[]"
        },
        {
          "internalType": "bytes[]",
          "name": "calldatas",
          "type": "bytes[]"
        },
        {
          "internalType": "bytes32",
          "name": "descriptionHash",
          "type": "bytes32"
        }
      ],
      "name": "hashProposal",
      "outputs": [
        {
          "internalType": "uint256",
          "name": "",
          "type": "uint256"
        }
      ],
      "stateMutability": "pure",
      "type": "function"
    },
    {
      "inputs": [
        {
          "internalType": "uint48",
          "name": "initialVotingDelay",
          "type": "uint48"
        },
        {
          "internalType": "uint32",
          "name": "initialVotingPeriod",
          "type": "uint32"
        },
        {
          "internalType": "uint256",
          "name": "initialProposalThreshold",
          "type": "uint256"
        },
        {
          "internalType": "uint256",
          "name": "quorumNumeratorValue",
          "type": "uint256"
        },
        {
          "internalType": "uint48",
          "name": "initialVoteExtension",
          "type": "uint48"
        }
      ],
      "name": "initialize",
      "outputs": [],
      "stateMutability": "nonpayable",
      "type": "function"
    },
    {
      "inputs": [],
      "name": "lateQuorumVoteExtension",
      "outputs": [
        {
          "internalType": "uint48",
          "name": "",
          "type": "uint48"
        }
      ],
      "stateMutability": "view",
      "type": "function"
    },
    {
      "inputs": [],
      "name": "name",
      "outputs": [
        {
          "internalType": "string",
          "name": "",
          "type": "string"
        }
      ],
      "stateMutability": "view",
      "type": "function"
    },
    {
      "inputs": [
        {
          "internalType": "address",
          "name": "owner",
          "type": "address"
        }
      ],
      "name": "nonces",
      "outputs": [
        {
          "internalType": "uint256",
          "name": "",
          "type": "uint256"
        }
      ],
      "stateMutability": "view",
      "type": "function"
    },
    {
      "inputs": [
        {
          "internalType": "address",
          "name": "",
          "type": "address"
        },
        {
          "internalType": "address",
          "name": "",
          "type": "address"
        },
        {
          "internalType": "uint256[]",
          "name": "",
          "type": "uint256[]"
        },
        {
          "internalType": "uint256[]",
          "name": "",
          "type": "uint256[]"
        },
        {
          "internalType": "bytes",
          "name": "",
          "type": "bytes"
        }
      ],
      "name": "onERC1155BatchReceived",
      "outputs": [
        {
          "internalType": "bytes4",
          "name": "",
          "type": "bytes4"
        }
      ],
      "stateMutability": "nonpayable",
      "type": "function"
    },
    {
      "inputs": [
        {
          "internalType": "address",
          "name": "",
          "type": "address"
        },
        {
          "internalType": "address",
          "name": "",
          "type": "address"
        },
        {
          "internalType": "uint256",
          "name": "",
          "type": "uint256"
        },
        {
          "internalType": "uint256",
          "name": "",
          "type": "uint256"
        },
        {
          "internalType": "bytes",
          "name": "",
          "type": "bytes"
        }
      ],
      "name": "onERC1155Received",
      "outputs": [
        {
          "internalType": "bytes4",
          "name": "",
          "type": "bytes4"
        }
      ],
      "stateMutability": "nonpayable",
      "type": "function"
    },
    {
      "inputs": [
        {
          "internalType": "address",
          "name": "",
          "type": "address"
        },
        {
          "internalType": "address",
          "name": "",
          "type": "address"
        },
        {
          "internalType": "uint256",
          "name": "",
          "type": "uint256"
        },
        {
          "internalType": "bytes",
          "name": "",
          "type": "bytes"
        }
      ],
      "name": "onERC721Received",
      "outputs": [
        {
          "internalType": "bytes4",
          "name": "",
          "type": "bytes4"
        }
      ],
      "stateMutability": "nonpayable",
      "type": "function"
    },
    {
      "inputs": [
        {
          "internalType": "uint256",
          "name": "proposalId",
          "type": "uint256"
        }
      ],
      "name": "proposalDeadline",
      "outputs": [
        {
          "internalType": "uint256",
          "name": "",
          "type": "uint256"
        }
      ],
      "stateMutability": "view",
      "type": "function"
    },
    {
      "inputs": [
        {
          "internalType": "uint256",
          "name": "proposalId",
          "type": "uint256"
        }
      ],
      "name": "proposalEta",
      "outputs": [
        {
          "internalType": "uint256",
          "name": "",
          "type": "uint256"
        }
      ],
      "stateMutability": "view",
      "type": "function"
    },
    {
      "inputs": [
        {
          "internalType": "uint256",
          "name": "proposalId",
          "type": "uint256"
        }
      ],
      "name": "proposalNeedsQueuing",
      "outputs": [
        {
          "internalType": "bool",
          "name": "",
          "type": "bool"
        }
      ],
      "stateMutability": "view",
      "type": "function"
    },
    {
      "inputs": [
        {
          "internalType": "uint256",
          "name": "proposalId",
          "type": "uint256"
        }
      ],
      "name": "proposalProposer",
      "outputs": [
        {
          "internalType": "address",
          "name": "",
          "type": "address"
        }
      ],
      "stateMutability": "view",
      "type": "function"
    },
    {
      "inputs": [
        {
          "internalType": "uint256",
          "name": "proposalId",
          "type": "uint256"
        }
      ],
      "name": "proposalSnapshot",
      "outputs": [
        {
          "internalType": "uint256",
          "name": "",
          "type": "uint256"
        }
      ],
      "stateMutability": "view",
      "type": "function"
    },
    {
      "inputs": [],
      "name": "proposalThreshold",
      "outputs": [
        {
          "internalType": "uint256",
          "name": "",
          "type": "uint256"
        }
      ],
      "stateMutability": "view",
      "type": "function"
    },
    {
      "inputs": [
        {
          "internalType": "uint256",
          "name": "proposalId",
          "type": "uint256"
        }
      ],
      "name": "proposalVotes",
      "outputs": [
        {
          "internalType": "uint256",
          "name": "againstVotes",
          "type": "uint256"
        },
        {
          "internalType": "uint256",
          "name": "forVotes",
          "type": "uint256"
        },
        {
          "internalType": "uint256",
          "name": "abstainVotes",
          "type": "uint256"
        }
      ],
      "stateMutability": "view",
      "type": "function"
    },
    {
      "inputs": [
        {
          "internalType": "address[]",
          "name": "targets",
          "type": "address[]"
        },
        {
          "internalType": "uint256[]",
          "name": "values",
          "type": "uint256[]"
        },
        {
          "internalType": "bytes[]",
          "name": "calldatas",
          "type": "bytes[]"
        },
        {
          "internalType": "string",
          "name": "description",
          "type": "string"
        }
      ],
      "name": "propose",
      "outputs": [
        {
          "internalType": "uint256",
          "name": "",
          "type": "uint256"
        }
      ],
      "stateMutability": "nonpayable",
      "type": "function"
    },
    {
      "inputs": [
        {
          "internalType": "address[]",
          "name": "targets",
          "type": "address[]"
        },
        {
          "internalType": "uint256[]",
          "name": "values",
          "type": "uint256[]"
        },
        {
          "internalType": "bytes[]",
          "name": "calldatas",
          "type": "bytes[]"
        },
        {
          "internalType": "bytes32",
          "name": "descriptionHash",
          "type": "bytes32"
        }
      ],
      "name": "queue",
      "outputs": [
        {
          "internalType": "uint256",
          "name": "",
          "type": "uint256"
        }
      ],
      "stateMutability": "nonpayable",
      "type": "function"
    },
    {
      "inputs": [
        {
          "internalType": "uint256",
          "name": "blockNumber",
          "type": "uint256"
        }
      ],
      "name": "quorum",
      "outputs": [
        {
          "internalType": "uint256",
          "name": "",
          "type": "uint256"
        }
      ],
      "stateMutability": "view",
      "type": "function"
    },
    {
      "inputs": [],
      "name": "quorumDenominator",
      "outputs": [
        {
          "internalType": "uint256",
          "name": "",
          "type": "uint256"
        }
      ],
      "stateMutability": "view",
      "type": "function"
    },
    {
      "inputs": [
        {
          "internalType": "uint256",
          "name": "timepoint",
          "type": "uint256"
        }
      ],
      "name": "quorumNumerator",
      "outputs": [
        {
          "internalType": "uint256",
          "name": "",
          "type": "uint256"
        }
      ],
      "stateMutability": "view",
      "type": "function"
    },
    {
      "inputs": [],
      "name": "quorumNumerator",
      "outputs": [
        {
          "internalType": "uint256",
          "name": "",
          "type": "uint256"
        }
      ],
      "stateMutability": "view",
      "type": "function"
    },
    {
      "inputs": [
        {
          "internalType": "address",
          "name": "target",
          "type": "address"
        },
        {
          "internalType": "uint256",
          "name": "value",
          "type": "uint256"
        },
        {
          "internalType": "bytes",
          "name": "data",
          "type": "bytes"
        }
      ],
      "name": "relay",
      "outputs": [],
      "stateMutability": "payable",
      "type": "function"
    },
    {
      "inputs": [
        {
          "internalType": "uint48",
          "name": "newVoteExtension",
          "type": "uint48"
        }
      ],
      "name": "setLateQuorumVoteExtension",
      "outputs": [],
      "stateMutability": "nonpayable",
      "type": "function"
    },
    {
      "inputs": [
        {
          "internalType": "uint256",
          "name": "newProposalThreshold",
          "type": "uint256"
        }
      ],
      "name": "setProposalThreshold",
      "outputs": [],
      "stateMutability": "nonpayable",
      "type": "function"
    },
    {
      "inputs": [
        {
          "internalType": "uint48",
          "name": "newVotingDelay",
          "type": "uint48"
        }
      ],
      "name": "setVotingDelay",
      "outputs": [],
      "stateMutability": "nonpayable",
      "type": "function"
    },
    {
      "inputs": [
        {
          "internalType": "uint32",
          "name": "newVotingPeriod",
          "type": "uint32"
        }
      ],
      "name": "setVotingPeriod",
      "outputs": [],
      "stateMutability": "nonpayable",
      "type": "function"
    },
    {
      "inputs": [
        {
          "internalType": "uint256",
          "name": "proposalId",
          "type": "uint256"
        }
      ],
      "name": "state",
      "outputs": [
        {
          "internalType": "enum IGovernor.ProposalState",
          "name": "",
          "type": "uint8"
        }
      ],
      "stateMutability": "view",
      "type": "function"
    },
    {
      "inputs": [
        {
          "internalType": "bytes4",
          "name": "interfaceId",
          "type": "bytes4"
        }
      ],
      "name": "supportsInterface",
      "outputs": [
        {
          "internalType": "bool",
          "name": "",
          "type": "bool"
        }
      ],
      "stateMutability": "view",
      "type": "function"
    },
    {
      "inputs": [],
      "name": "timelock",
      "outputs": [
        {
          "internalType": "address",
          "name": "",
          "type": "address"
        }
      ],
      "stateMutability": "view",
      "type": "function"
    },
    {
      "inputs": [],
      "name": "token",
      "outputs": [
        {
          "internalType": "contract IERC5805",
          "name": "",
          "type": "address"
        }
      ],
      "stateMutability": "view",
      "type": "function"
    },
    {
      "inputs": [
        {
          "internalType": "uint256",
          "name": "newQuorumNumerator",
          "type": "uint256"
        }
      ],
      "name": "updateQuorumNumerator",
      "outputs": [],
      "stateMutability": "nonpayable",
      "type": "function"
    },
    {
      "inputs": [
        {
          "internalType": "contract TimelockControllerUpgradeable",
          "name": "newTimelock",
          "type": "address"
        }
      ],
      "name": "updateTimelock",
      "outputs": [],
      "stateMutability": "nonpayable",
      "type": "function"
    },
    {
      "inputs": [],
      "name": "version",
      "outputs": [
        {
          "internalType": "string",
          "name": "",
          "type": "string"
        }
      ],
      "stateMutability": "view",
      "type": "function"
    },
    {
      "inputs": [],
      "name": "votingDelay",
      "outputs": [
        {
          "internalType": "uint256",
          "name": "",
          "type": "uint256"
        }
      ],
      "stateMutability": "view",
      "type": "function"
    },
    {
      "inputs": [],
      "name": "votingPeriod",
      "outputs": [
        {
          "internalType": "uint256",
          "name": "",
          "type": "uint256"
        }
      ],
      "stateMutability": "view",
      "type": "function"
    },
    {
      "stateMutability": "payable",
      "type": "receive"
    }
  ],
  "bytecode": "0x6080604052348015600f57600080fd5b506016601a565b60ca565b7ff0c57e16840df040f15088dc2f81fe391c3923bec73e23a9662efc9c229c6a00805468010000000000000000900460ff161560695760405163f92ee8a960e01b815260040160405180910390fd5b80546001600160401b039081161460c75780546001600160401b0319166001600160401b0390811782556040519081527fc7f505b2f371ae2175ee4913f4499e1f2633a7b5936321eed1cdaeb6115181d29060200160405180910390a15b50565b614d9e806100d96000396000f3fe6080604052600436106103385760003560e01c80637d5e81e2116101b0578063be899c0f116100ec578063deaaa7cc11610095578063ece40cc11161006f578063ece40cc114610b3d578063f23a6e6114610b5d578063f8ce560a14610b7d578063fc0c546a14610b9d57600080fd5b8063deaaa7cc14610ac9578063e540d01d14610afd578063eb9019d414610b1d57600080fd5b8063c59057e4116100c6578063c59057e414610a4e578063d33219b414610a6e578063dd4e2ba514610a8357600080fd5b8063be899c0f146109fb578063c01f9e3714610a1b578063c28bc2fa14610a3b57600080fd5b80639a802a6d11610159578063a9a9529411610133578063a9a9529414610961578063ab58fb8e14610981578063b58131b0146109c6578063bc197c81146109db57600080fd5b80639a802a6d1461090c578063a7713a701461092c578063a890c9101461094157600080fd5b80638ff262e31161018a5780638ff262e3146108c357806391ddadf4146108e357806397c3d334146108f857600080fd5b80637d5e81e2146108265780637ecebe001461084657806384b0196e1461089b57600080fd5b80633932abb11161027f57806354fd4d50116102285780635f398a14116102025780635f398a14146107a657806360c4247f146107c657806379051887146107e65780637b3c71d31461080657600080fd5b806354fd4d501461073c57806356781388146107665780635b8d0e0d1461078657600080fd5b8063452115d611610259578063452115d6146106935780634bf5d7e9146106b3578063544ffc9c146106c857600080fd5b80633932abb1146105e85780633e4f49e6146105fd578063438596321461062a57600080fd5b8063160cbed7116102e15780632fe3e261116102bb5780632fe3e2611461054557806332b8113e14610579578063330df7ff146105c857600080fd5b8063160cbed7146104c95780632656227d146104e95780632d63f693146104fc57600080fd5b806306fdde031161031257806306fdde0314610413578063143489d014610435578063150b7a021461049057600080fd5b806301ffc9a71461037457806302a251a3146103a957806306f3f9e6146103f357600080fd5b3661036f5730610346610bb2565b6001600160a01b03161461036d57604051637485328f60e11b815260040160405180910390fd5b005b600080fd5b34801561038057600080fd5b5061039461038f366004613c23565b610bc1565b60405190151581526020015b60405180910390f35b3480156103b557600080fd5b507ed7616c8fe29c6c2fbe1d0c5bc8f2faa4c35b43746e70b24b4d532752affd0154600160301b900463ffffffff165b6040519081526020016103a0565b3480156103ff57600080fd5b5061036d61040e366004613c4d565b610c13565b34801561041f57600080fd5b50610428610c27565b6040516103a09190613cb6565b34801561044157600080fd5b50610478610450366004613c4d565b6000908152600080516020614d5283398151915260205260409020546001600160a01b031690565b6040516001600160a01b0390911681526020016103a0565b34801561049c57600080fd5b506104b06104ab366004613dab565b610ccb565b6040516001600160e01b031990911681526020016103a0565b3480156104d557600080fd5b506103e56104e4366004613f8d565b610d0e565b6103e56104f7366004613f8d565b610df0565b34801561050857600080fd5b506103e5610517366004613c4d565b6000908152600080516020614d528339815191526020526040902054600160a01b900465ffffffffffff1690565b34801561055157600080fd5b506103e57f3e83946653575f9a39005e1545185629e92736b7528ab20ca3816f315424a81181565b34801561058557600080fd5b507f042f525fd47e44d02e065dd7bb464f47b4f926fbd05b5e087891ebd756adf1005465ffffffffffff165b60405165ffffffffffff90911681526020016103a0565b3480156105d457600080fd5b5061036d6105e336600461403d565b610f8f565b3480156105f457600080fd5b506103e5610fa0565b34801561060957600080fd5b5061061d610618366004613c4d565b610fd1565b6040516103a09190614092565b34801561063657600080fd5b506103946106453660046140a0565b60009182527fa1cefa0f43667ef127a258e673c94202a79b656e62899531c4376d87a7f39800602090815260408084206001600160a01b039390931684526003909201905290205460ff1690565b34801561069f57600080fd5b506103e56106ae366004613f8d565b610fdc565b3480156106bf57600080fd5b5061042861105d565b3480156106d457600080fd5b506107216106e3366004613c4d565b60009081527fa1cefa0f43667ef127a258e673c94202a79b656e62899531c4376d87a7f3980060205260409020805460018201546002909201549092565b604080519384526020840192909252908201526060016103a0565b34801561074857600080fd5b506040805180820190915260018152603160f81b6020820152610428565b34801561077257600080fd5b506103e56107813660046140e1565b611106565b34801561079257600080fd5b506103e56107a1366004614156565b61112f565b3480156107b257600080fd5b506103e56107c136600461421d565b6112ad565b3480156107d257600080fd5b506103e56107e1366004613c4d565b611302565b3480156107f257600080fd5b5061036d61080136600461403d565b6113b1565b34801561081257600080fd5b506103e56108213660046142a6565b6113c2565b34801561083257600080fd5b506103e5610841366004614300565b61140a565b34801561085257600080fd5b506103e56108613660046143c8565b6001600160a01b031660009081527f5ab42ced628888259c08ac98db1eb0cf702fc1501344311d8b100cd1bfe4bb00602052604090205490565b3480156108a757600080fd5b506108b06114c3565b6040516103a09796959493929190614421565b3480156108cf57600080fd5b506103e56108de36600461448f565b611589565b3480156108ef57600080fd5b506105b161167a565b34801561090457600080fd5b5060646103e5565b34801561091857600080fd5b506103e56109273660046144e1565b6116e9565b34801561093857600080fd5b506103e56116f6565b34801561094d57600080fd5b5061036d61095c3660046143c8565b611731565b34801561096d57600080fd5b5061039461097c366004613c4d565b611742565b34801561098d57600080fd5b506103e561099c366004613c4d565b6000908152600080516020614d52833981519152602052604090206001015465ffffffffffff1690565b3480156109d257600080fd5b506103e561174b565b3480156109e757600080fd5b506104b06109f636600461453a565b611774565b348015610a0757600080fd5b5061036d610a163660046145ef565b6117b8565b348015610a2757600080fd5b506103e5610a36366004613c4d565b6118c7565b61036d610a4936600461464c565b6118d2565b348015610a5a57600080fd5b506103e5610a69366004613f8d565b611952565b348015610a7a57600080fd5b5061047861198c565b348015610a8f57600080fd5b506040805180820190915260208082527f737570706f72743d627261766f2671756f72756d3d666f722c6162737461696e90820152610428565b348015610ad557600080fd5b506103e57ff2aad550cf55f045cb27e9c559f9889fdfb6e6cdaa032301d6ea397784ae51d781565b348015610b0957600080fd5b5061036d610b18366004614690565b6119c1565b348015610b2957600080fd5b506103e5610b383660046146ab565b6119d2565b348015610b4957600080fd5b5061036d610b58366004613c4d565b6119fa565b348015610b6957600080fd5b506104b0610b783660046146d7565b611a0b565b348015610b8957600080fd5b506103e5610b98366004613c4d565b611a4f565b348015610ba957600080fd5b50610478611a5a565b6000610bbc61198c565b905090565b60006001600160e01b031982166332a2ad4360e11b1480610bf257506001600160e01b03198216630271189760e51b145b80610c0d57506301ffc9a760e01b6001600160e01b03198316145b92915050565b610c1b611a83565b610c2481611b0e565b50565b600080516020614d728339815191528054606091908190610c4790614734565b80601f0160208091040260200160405190810160405280929190818152602001828054610c7390614734565b8015610cc05780601f10610c9557610100808354040283529160200191610cc0565b820191906000526020600020905b815481529060010190602001808311610ca357829003601f168201915b505050505091505090565b600030610cd6610bb2565b6001600160a01b031614610cfd57604051637485328f60e11b815260040160405180910390fd5b50630a85bd0160e11b949350505050565b6000600080516020614d7283398151915281610d2c87878787611952565b9050610d4181610d3c6004611bc5565b611be8565b506000610d518289898989611c27565b905065ffffffffffff811615610dcc57600082815260018481016020908152604092839020909101805465ffffffffffff191665ffffffffffff85169081179091558251858152918201527f9a2e42fd6722813d69113e7d0079d3d940171428df7373df9c7f7617cfda2892910160405180910390a1610de5565b604051634844252360e11b815260040160405180910390fd5b509695505050505050565b6000600080516020614d7283398151915281610e0e87878787611952565b9050610e2e81610e1e6005611bc5565b610e286004611bc5565b17611be8565b506000818152600183016020526040902080547fff00ffffffffffffffffffffffffffffffffffffffffffffffffffffffffffff16600160f01b17905530610e74610bb2565b6001600160a01b031614610f005760005b8751811015610efe57306001600160a01b0316888281518110610eaa57610eaa61476e565b60200260200101516001600160a01b031603610ef657610ef6868281518110610ed557610ed561476e565b60200260200101518051906020012084600201611c3690919063ffffffff16565b600101610e85565b505b610f0d8188888888611ca7565b30610f16610bb2565b6001600160a01b031614158015610f44575060028201546001600160801b03808216600160801b9092041614155b15610f5157600060028301555b6040518181527f712ae1383f79ac853f8d882153778e0260ef8f03b504e2866e0593e04d2b291f906020015b60405180910390a19695505050505050565b610f97611a83565b610c2481611cbb565b6000610bbc7ed7616c8fe29c6c2fbe1d0c5bc8f2faa4c35b43746e70b24b4d532752affd015465ffffffffffff1690565b6000610c0d82611d40565b600080610feb86868686611952565b9050610ffb81610d3c6000611bc5565b506000818152600080516020614d5283398151915260205260409020546001600160a01b031633146110475760405163233d98e360e01b81523360048201526024015b60405180910390fd5b61105386868686611ea4565b9695505050505050565b6060611067611a5a565b6001600160a01b0316634bf5d7e96040518163ffffffff1660e01b8152600401600060405180830381865afa9250505080156110c557506040513d6000823e601f3d908101601f191682016040526110c29190810190614784565b60015b611101575060408051808201909152601d81527f6d6f64653d626c6f636b6e756d6265722666726f6d3d64656661756c74000000602082015290565b919050565b60008033905061112784828560405180602001604052806000815250611ebb565b949350505050565b6000806112318761122b7f3e83946653575f9a39005e1545185629e92736b7528ab20ca3816f315424a8118c8c8c6111a38e6001600160a01b031660009081527f5ab42ced628888259c08ac98db1eb0cf702fc1501344311d8b100cd1bfe4bb006020526040902080546001810190915590565b8d8d6040516111b39291906147f2565b60405180910390208c805190602001206040516020016112109796959493929190968752602087019590955260ff9390931660408601526001600160a01b03919091166060850152608084015260a083015260c082015260e00190565b60405160208183030381529060405280519060200120611ede565b85611f0b565b90508061125c576040516394ab6c0760e01b81526001600160a01b038816600482015260240161103e565b6112a089888a89898080601f0160208091040260200160405190810160405280939291908181526020018383808284376000920191909152508b9250611f63915050565b9998505050505050505050565b6000803390506112f787828888888080601f0160208091040260200160405190810160405280939291908181526020018383808284376000920191909152508a9250611f63915050565b979650505050505050565b7fe770710421fd2cad75ad828c61aa98f2d77d423a440b67872d0f65554148e0008054600091908282611336600184614818565b815481106113465761134661476e565b6000918252602090912001805490915065ffffffffffff811690600160301b90046001600160d01b031686821161138a576001600160d01b03169695505050505050565b61139d61139688611f72565b8690611fa9565b6001600160d01b0316979650505050505050565b6113b9611a83565b610c248161205e565b60008033905061105386828787878080601f016020809104026020016040519081016040528093929190818152602001838380828437600092019190915250611ebb92505050565b6000336114178184612104565b61143f5760405163d9b3955760e01b81526001600160a01b038216600482015260240161103e565b600061144961174b565b905080156114b657600061147883600161146161167a565b61146b919061482b565b65ffffffffffff166119d2565b9050818110156114b457604051636121770b60e11b81526001600160a01b0384166004820152602481018290526044810183905260640161103e565b505b6112f78787878786612218565b600060608082808083817fa16a46d94261c7517cc8ff89f61c0ce93598e3c849801011dee649a6a557d100805490915015801561150257506001810154155b61154e5760405162461bcd60e51b815260206004820152601560248201527f4549503731323a20556e696e697469616c697a65640000000000000000000000604482015260640161103e565b611556612227565b61155e612278565b60408051600080825260208201909252600f60f81b9c939b5091995046985030975095509350915050565b6000806116348461122b7ff2aad550cf55f045cb27e9c559f9889fdfb6e6cdaa032301d6ea397784ae51d78989896115fd8b6001600160a01b031660009081527f5ab42ced628888259c08ac98db1eb0cf702fc1501344311d8b100cd1bfe4bb006020526040902080546001810190915590565b60408051602081019690965285019390935260ff90911660608401526001600160a01b0316608083015260a082015260c001611210565b90508061165f576040516394ab6c0760e01b81526001600160a01b038516600482015260240161103e565b61105386858760405180602001604052806000815250611ebb565b6000611684611a5a565b6001600160a01b03166391ddadf46040518163ffffffff1660e01b8152600401602060405180830381865afa9250505080156116dd575060408051601f3d908101601f191682019092526116da91810190614849565b60015b61110157610bbc6122c9565b60006111278484846122d4565b60007fe770710421fd2cad75ad828c61aa98f2d77d423a440b67872d0f65554148e00061172281612351565b6001600160d01b031691505090565b611739611a83565b610c248161238a565b60006001610c0d565b6000610bbc7ed7616c8fe29c6c2fbe1d0c5bc8f2faa4c35b43746e70b24b4d532752affd005490565b60003061177f610bb2565b6001600160a01b0316146117a657604051637485328f60e11b815260040160405180910390fd5b5063bc197c8160e01b95945050505050565b7ff0c57e16840df040f15088dc2f81fe391c3923bec73e23a9662efc9c229c6a0080546001919068010000000000000000900460ff16806118075750805467ffffffffffffffff808416911610155b156118255760405163f92ee8a960e01b815260040160405180910390fd5b805468ffffffffffffffffff191667ffffffffffffffff83161768010000000000000000178155611857878787612412565b61185f61242a565b61186884612434565b61187183612445565b805468ff00000000000000001916815560405167ffffffffffffffff831681527fc7f505b2f371ae2175ee4913f4499e1f2633a7b5936321eed1cdaeb6115181d29060200160405180910390a150505050505050565b6000610c0d82612456565b6118da611a83565b600080856001600160a01b03168585856040516118f89291906147f2565b60006040518083038185875af1925050503d8060008114611935576040519150601f19603f3d011682016040523d82523d6000602084013e61193a565b606091505b509150915061194982826124a3565b50505050505050565b60008484848460405160200161196b94939291906148fd565b60408051601f19818403018152919052805160209091012095945050505050565b6000807f0d5829787b8befdbc6044ef7457d8a95c2a04bc99235349f1a212c063e59d4005b546001600160a01b031692915050565b6119c9611a83565b610c24816124bf565b60006119f383836119ee60408051602081019091526000815290565b6122d4565b9392505050565b611a02611a83565b610c2481612580565b600030611a16610bb2565b6001600160a01b031614611a3d57604051637485328f60e11b815260040160405180910390fd5b5063f23a6e6160e01b95945050505050565b6000610c0d826125df565b6000807f3ba4977254e415696610a40ebf2258dbfa0ec6a2ff64e84bfe715ff16977cc006119b1565b600080516020614d7283398151915233611a9b610bb2565b6001600160a01b031614611ac4576040516347096e4760e01b815233600482015260240161103e565b30611acd610bb2565b6001600160a01b031614610c245760008036604051611aed9291906147f2565b604051809103902090505b80611b0583600201612676565b03611af8575050565b7fe770710421fd2cad75ad828c61aa98f2d77d423a440b67872d0f65554148e000606480831115611b5c5760405163243e544560e01b8152600481018490526024810182905260440161103e565b6000611b666116f6565b9050611b84611b7361167a565b611b7c866126f4565b859190612728565b505060408051828152602081018690527f0553476bf02ef2726e8ce5ced78d63e26e602e4a2257b1f559418e24b4633997910160405180910390a150505050565b6000816007811115611bd957611bd961405a565b600160ff919091161b92915050565b600080611bf484610fd1565b9050600083611c0283611bc5565b16036119f3578381846040516331b75e4d60e01b815260040161103e93929190614948565b60006110538686868686612743565b81546001600160801b03600160801b820481169181166001830190911603611c7157604051638acb5f2760e01b815260040160405180910390fd5b6001600160801b03808216600090815260018086016020526040909120939093558354919092018216600160801b029116179055565b611cb485858585856128fc565b5050505050565b7f042f525fd47e44d02e065dd7bb464f47b4f926fbd05b5e087891ebd756adf10080546040805165ffffffffffff9283168152918416602083015280517f7ca4ac117ed3cdce75c1161d8207c440389b1a15d69d096831664657c07dafc29281900390910190a1805465ffffffffffff191665ffffffffffff92909216919091179055565b60007f0d5829787b8befdbc6044ef7457d8a95c2a04bc99235349f1a212c063e59d40081611d6d846129b6565b90506005816007811115611d8357611d8361405a565b14611d8f579392505050565b6000848152600183016020526040908190205483549151632c258a9f60e11b81526004810182905290916001600160a01b03169063584b153e90602401602060405180830381865afa158015611de9573d6000803e3d6000fd5b505050506040513d601f19601f82011682018060405250810190611e0d919061496a565b15611e1d57506005949350505050565b8254604051632ab0f52960e01b8152600481018390526001600160a01b0390911690632ab0f52990602401602060405180830381865afa158015611e65573d6000803e3d6000fd5b505050506040513d601f19601f82011682018060405250810190611e89919061496a565b15611e9957506007949350505050565b506002949350505050565b6000611eb285858585612b61565b95945050505050565b6000611eb285858585611ed960408051602081019091526000815290565b611f63565b6000610c0d611eeb612c25565b8360405161190160f01b8152600281019290925260228201526042902090565b6000806000611f1a8585612c2f565b5090925090506000816003811115611f3457611f3461405a565b148015611f525750856001600160a01b0316826001600160a01b0316145b806110535750611053868686612c7c565b60006110538686868686612d6c565b600065ffffffffffff821115611fa5576040516306dfcc6560e41b8152603060048201526024810183905260440161103e565b5090565b815460009081816005811115612008576000611fc484612ea2565b611fce9085614818565b60008881526020902090915081015465ffffffffffff9081169087161015611ff857809150612006565b61200381600161498c565b92505b505b600061201687878585612f8a565b905080156120515761203b8761202d600184614818565b600091825260209091200190565b54600160301b90046001600160d01b03166112f7565b6000979650505050505050565b7ed7616c8fe29c6c2fbe1d0c5bc8f2faa4c35b43746e70b24b4d532752affd01546040805165ffffffffffff9283168152918316602083015280517ed7616c8fe29c6c2fbe1d0c5bc8f2faa4c35b43746e70b24b4d532752affd00927fc565b045403dc03c2eea82b81a0465edad9e2e7fc4d97e11421c209da93d7a9392908290030190a1600101805465ffffffffffff191665ffffffffffff92909216919091179055565b8051600090603481101561211c576001915050610c0d565b82810160131901516001600160a01b031981167f2370726f706f7365723d307800000000000000000000000000000000000000001461216057600192505050610c0d565b60008061216e602885614818565b90505b838110156121f7576000806121bd8884815181106121915761219161476e565b01602001517fff0000000000000000000000000000000000000000000000000000000000000016612fec565b91509150816121d55760019650505050505050610c0d565b8060ff166004856001600160a01b0316901b1793505050806001019050612171565b50856001600160a01b0316816001600160a01b031614935050505092915050565b6000611053868686868661307e565b7fa16a46d94261c7517cc8ff89f61c0ce93598e3c849801011dee649a6a557d10280546060917fa16a46d94261c7517cc8ff89f61c0ce93598e3c849801011dee649a6a557d10091610c4790614734565b7fa16a46d94261c7517cc8ff89f61c0ce93598e3c849801011dee649a6a557d10380546060917fa16a46d94261c7517cc8ff89f61c0ce93598e3c849801011dee649a6a557d10091610c4790614734565b6000610bbc43611f72565b60006122de611a5a565b604051630748d63560e31b81526001600160a01b038681166004830152602482018690529190911690633a46b1a890604401602060405180830381865afa15801561232d573d6000803e3d6000fd5b505050506040513d601f19601f82011682018060405250810190611127919061499f565b805460009080156123815761236b8361202d600184614818565b54600160301b90046001600160d01b03166119f3565b60009392505050565b7f0d5829787b8befdbc6044ef7457d8a95c2a04bc99235349f1a212c063e59d4008054604080516001600160a01b039283168152918416602083015280517f08f74ea46ef7894f65eabfb5e6e695de773a000b47c529ab559178069b2264019281900390910190a180546001600160a01b0319166001600160a01b0392909216919091179055565b61241a613302565b612425838383613350565b505050565b612432613302565b565b61243c613302565b610c2481613373565b61244d613302565b610c248161337b565b60007f042f525fd47e44d02e065dd7bb464f47b4f926fbd05b5e087891ebd756adf1006119f361248584613383565b600085815260018401602052604090205465ffffffffffff166133e4565b6060826124b8576124b3826133fa565b610c0d565b5080610c0d565b7ed7616c8fe29c6c2fbe1d0c5bc8f2faa4c35b43746e70b24b4d532752affd0063ffffffff82166000036125095760405163f1cfbf0560e01b81526000600482015260240161103e565b60018101546040805163ffffffff600160301b9093048316815291841660208301527f7e3f7f0708a84de9203036abaa450dccc85ad5ff52f78c170f3edb55cf5e8828910160405180910390a1600101805463ffffffff909216600160301b0269ffffffff00000000000019909216919091179055565b7ed7616c8fe29c6c2fbe1d0c5bc8f2faa4c35b43746e70b24b4d532752affd008054604080519182526020820184905280517fccb45da8d5717e6c4544694297c4ba5cf151d455c9bb0ed4fc7a38411bc054619281900390910190a155565b600060646125ec83611302565b6125f4611a5a565b6001600160a01b0316638e539e8c856040518263ffffffff1660e01b815260040161262191815260200190565b602060405180830381865afa15801561263e573d6000803e3d6000fd5b505050506040513d601f19601f82011682018060405250810190612662919061499f565b61266c91906149b8565b610c0d91906149e5565b80546000906001600160801b0380821691600160801b90041681036126ae576040516375e52f4f60e01b815260040160405180910390fd5b6001600160801b038181166000908152600185810160205260408220805492905585546fffffffffffffffffffffffffffffffff19169301909116919091179092555090565b60006001600160d01b03821115611fa5576040516306dfcc6560e41b815260d060048201526024810183905260440161103e565b600080612736858585613423565b915091505b935093915050565b7f0d5829787b8befdbc6044ef7457d8a95c2a04bc99235349f1a212c063e59d40080546040805163793d064960e11b815290516000939284926001600160a01b039091169163f27a0c92916004808201926020929091908290030181865afa1580156127b3573d6000803e3d6000fd5b505050506040513d601f19601f820116820180604052508101906127d7919061499f565b905060003060601b6bffffffffffffffffffffffff19168518835460405163b1c5f42760e01b81529192506001600160a01b03169063b1c5f42790612829908b908b908b906000908890600401614a07565b602060405180830381865afa158015612846573d6000803e3d6000fd5b505050506040513d601f19601f8201168201806040525081019061286a919061499f565b60008a815260018501602052604080822092909255845491516308f2a0bb60e41b81526001600160a01b0390921691638f2a0bb0916128b6918c918c918c919088908a90600401614a55565b600060405180830381600087803b1580156128d057600080fd5b505af11580156128e4573d6000803e3d6000fd5b505050506112a082426128f7919061498c565b611f72565b7f0d5829787b8befdbc6044ef7457d8a95c2a04bc99235349f1a212c063e59d400805460405163e38335e560e01b81526001600160a01b039091169063e38335e590349061296b908990899089906000906bffffffffffffffffffffffff193060601b168b1890600401614a07565b6000604051808303818588803b15801561298457600080fd5b505af1158015612998573d6000803e3d6000fd5b50505060009788525050600101602052505060408320929092555050565b6000818152600080516020614d52833981519152602052604081208054600080516020614d72833981519152919060ff600160f01b8204811691600160f81b9004168115612a0a5750600795945050505050565b8015612a1c5750600295945050505050565b6000868152600080516020614d528339815191526020526040812054600160a01b900465ffffffffffff16905080600003612a6d57604051636ad0607560e01b81526004810188905260240161103e565b6000612a7761167a565b65ffffffffffff169050808210612a9657506000979650505050505050565b6000612aa1896118c7565b9050818110612ab95750600198975050505050505050565b612ac28961359d565b1580612b01575060008981527fa1cefa0f43667ef127a258e673c94202a79b656e62899531c4376d87a7f3980060205260409020805460019091015411155b15612b155750600398975050505050505050565b6000898152600080516020614d52833981519152602052604090206001015465ffffffffffff16600003612b525750600498975050505050505050565b50600598975050505050505050565b60007f0d5829787b8befdbc6044ef7457d8a95c2a04bc99235349f1a212c063e59d40081612b918787878761361e565b60008181526001840160205260409020549091508015610de557825460405163c4d252f560e01b8152600481018390526001600160a01b039091169063c4d252f590602401600060405180830381600087803b158015612bf057600080fd5b505af1158015612c04573d6000803e3d6000fd5b50505060008381526001850160205260408120555050915050949350505050565b6000610bbc6136f8565b60008060008351604103612c695760208401516040850151606086015160001a612c5b8882858561376c565b955095509550505050612c75565b50508151600091506002905b9250925092565b6000806000856001600160a01b03168585604051602401612c9e929190614aad565b60408051601f198184030181529181526020820180517bffffffffffffffffffffffffffffffffffffffffffffffffffffffff16630b135d3f60e11b17905251612ce89190614ac6565b600060405180830381855afa9150503d8060008114612d23576040519150601f19603f3d011682016040523d82523d6000602084013e612d28565b606091505b5091509150818015612d3c57506020815110155b801561105357508051630b135d3f60e11b90612d61908301602090810190840161499f565b149695505050505050565b60007f042f525fd47e44d02e065dd7bb464f47b4f926fbd05b5e087891ebd756adf10081612d9d888888888861383b565b600089815260018401602052604090205490915065ffffffffffff16158015612dca5750612dca8861359d565b156112f7576000612e017f042f525fd47e44d02e065dd7bb464f47b4f926fbd05b5e087891ebd756adf1005465ffffffffffff1690565b612e0961167a565b612e139190614ae2565b9050612e1e896118c7565b8165ffffffffffff161115612e6b5760405165ffffffffffff8216815289907f541f725fb9f7c98a30cc9c0ff32fbb14358cd7159c847a3aa20a2bdc442ba5119060200160405180910390a25b60008981526001840160205260409020805465ffffffffffff191665ffffffffffff92909216919091179055979650505050505050565b600081600003612eb457506000919050565b60006001612ec18461393f565b901c6001901b90506001818481612eda57612eda6149cf565b048201901c90506001818481612ef257612ef26149cf565b048201901c90506001818481612f0a57612f0a6149cf565b048201901c90506001818481612f2257612f226149cf565b048201901c90506001818481612f3a57612f3a6149cf565b048201901c90506001818481612f5257612f526149cf565b048201901c90506001818481612f6a57612f6a6149cf565b048201901c90506119f381828581612f8457612f846149cf565b046139d3565b60005b81831015612fe4576000612fa184846139e2565b60008781526020902090915065ffffffffffff86169082015465ffffffffffff161115612fd057809250612fde565b612fdb81600161498c565b93505b50612f8d565b509392505050565b60008060f883901c602f811180156130075750603a8160ff16105b1561301c57600194602f199091019350915050565b8060ff166040108015613032575060478160ff16105b15613047576001946036199091019350915050565b8060ff16606010801561305d575060678160ff16105b15613072576001946056199091019350915050565b50600093849350915050565b600080600080516020614d7283398151915290506130a58787878780519060200120611952565b9150855187511415806130ba57508451875114155b806130c457508651155b156130f957865185518751604051630447b05d60e41b815260048101939093526024830191909152604482015260640161103e565b6000828152600182016020526040902054600160a01b900465ffffffffffff1615613146578161312883610fd1565b6040516331b75e4d60e01b815261103e929190600090600401614948565b6000613150610fa0565b61315861167a565b65ffffffffffff1661316a919061498c565b905060006131a37ed7616c8fe29c6c2fbe1d0c5bc8f2faa4c35b43746e70b24b4d532752affd015463ffffffff600160301b9091041690565b6000858152600185016020526040902080546001600160a01b0319166001600160a01b0388161781559091506131d883611f72565b815465ffffffffffff91909116600160a01b027fffffffffffff000000000000ffffffffffffffffffffffffffffffffffffffff90911617815561321b826139fd565b815463ffffffff91909116600160d01b027fffff00000000ffffffffffffffffffffffffffffffffffffffffffffffffffff90911617815589517f7d84a6263ae0d98d3329bd7b46bb4e8d6f98cd35a7adb45c274c8b7fd5ebd5e090869088908d908d9067ffffffffffffffff81111561329757613297613cde565b6040519080825280602002602001820160405280156132ca57816020015b60608152602001906001900390816132b55790505b508d896132d78a8261498c565b8f6040516132ed99989796959493929190614b00565b60405180910390a15050505095945050505050565b7ff0c57e16840df040f15088dc2f81fe391c3923bec73e23a9662efc9c229c6a005468010000000000000000900460ff1661243257604051631afcd79f60e31b815260040160405180910390fd5b613358613302565b6133618361205e565b61336a826124bf565b61242581612580565b610c1b613302565b610f97613302565b6000818152600080516020614d528339815191526020526040812054600080516020614d72833981519152906133d590600160d01b810463ffffffff1690600160a01b900465ffffffffffff16614ae2565b65ffffffffffff169392505050565b60008183116133f357816119f3565b5090919050565b80511561340a5780518082602001fd5b604051630a12f52160e11b815260040160405180910390fd5b8254600090819080156135425760006134418761202d600185614818565b60408051808201909152905465ffffffffffff808216808452600160301b9092046001600160d01b03166020840152919250908716101561349557604051632520601d60e01b815260040160405180910390fd5b805165ffffffffffff8088169116036134e157846134b88861202d600186614818565b80546001600160d01b0392909216600160301b0265ffffffffffff909216919091179055613532565b6040805180820190915265ffffffffffff80881682526001600160d01b0380881660208085019182528b54600181018d5560008d81529190912094519151909216600160301b029216919091179101555b60200151925083915061273b9050565b50506040805180820190915265ffffffffffff80851682526001600160d01b0380851660208085019182528854600181018a5560008a815291822095519251909316600160301b02919093161792019190915590508161273b565b60008181527fa1cefa0f43667ef127a258e673c94202a79b656e62899531c4376d87a7f39800602081905260408220600281015460018201546135e0919061498c565b6000858152600080516020614d52833981519152602052604090205461361490600160a01b900465ffffffffffff16611a4f565b1115949350505050565b6000600080516020614d728339815191528161363c87878787611952565b905061368a8161364c6007611bc5565b6136566006611bc5565b6136606002611bc5565b600161366d600782614bdc565b613678906002614cd4565b6136829190614818565b181818611be8565b5060008181526001830160205260409081902080547effffffffffffffffffffffffffffffffffffffffffffffffffffffffffffff16600160f81b179055517f789cf55be980739dad1d0699b93b58e806b51c9d96619bfa8fe0a28abaa7b30c90610f7d9083815260200190565b60007f8b73c3c69bb8fe3d512ecc4cf759cc79239f7b179b0ffacaa9a75d522b39400f613723613a2e565b61372b613aaa565b60408051602081019490945283019190915260608201524660808201523060a082015260c00160405160208183030381529060405280519060200120905090565b600080807f7fffffffffffffffffffffffffffffff5d576e7357a4501ddfe92f46681b20a08411156137a75750600091506003905082613831565b604080516000808252602082018084528a905260ff891692820192909252606081018790526080810186905260019060a0016020604051602081039080840390855afa1580156137fb573d6000803e3d6000fd5b5050604051601f1901519150506001600160a01b03811661382757506000925060019150829050613831565b9250600091508190505b9450945094915050565b600061384b86610d3c6001611bc5565b506000868152600080516020614d528339815191526020526040812054613883908790600160a01b900465ffffffffffff16856122d4565b905060006138948888888588613b00565b905083516000036138eb57866001600160a01b03167fb8e138887d0aa13bab447e82de9d5c1777041ecd21ca36ba824ff1e6c07ddda4898884896040516138de9493929190614ce3565b60405180910390a26112f7565b866001600160a01b03167fe2babfbac5889a709b63bb7f598b324e08bc5a4fb9ec647fb3cbc9ec07eb8712898884898960405161392c959493929190614d0b565b60405180910390a2979650505050505050565b600080608083901c1561395457608092831c92015b604083901c1561396657604092831c92015b602083901c1561397857602092831c92015b601083901c1561398a57601092831c92015b600883901c1561399c57600892831c92015b600483901c156139ae57600492831c92015b600283901c156139c057600292831c92015b600183901c15610c0d5760010192915050565b60008183106133f357816119f3565b60006139f160028484186149e5565b6119f39084841661498c565b600063ffffffff821115611fa5576040516306dfcc6560e41b8152602060048201526024810183905260440161103e565b60007fa16a46d94261c7517cc8ff89f61c0ce93598e3c849801011dee649a6a557d10081613a5a612227565b805190915015613a7257805160209091012092915050565b81548015613a81579392505050565b7fc5d2460186f7233c927e7db2dcc703c0e500b653ca82273b7bfad8045d85a470935050505090565b60007fa16a46d94261c7517cc8ff89f61c0ce93598e3c849801011dee649a6a557d10081613ad6612278565b805190915015613aee57805160209091012092915050565b60018201548015613a81579392505050565b60008581527fa1cefa0f43667ef127a258e673c94202a79b656e62899531c4376d87a7f39800602081815260408084206001600160a01b03891685526003810190925283205460ff1615613b72576040516371c6af4960e01b81526001600160a01b038816600482015260240161103e565b6001600160a01b03871660009081526003820160205260409020805460ff1916600117905560ff8616613bbe5784816000016000828254613bb3919061498c565b90915550613c179050565b60001960ff871601613bde5784816001016000828254613bb3919061498c565b60011960ff871601613bfe5784816002016000828254613bb3919061498c565b6040516303599be160e11b815260040160405180910390fd5b50929695505050505050565b600060208284031215613c3557600080fd5b81356001600160e01b0319811681146119f357600080fd5b600060208284031215613c5f57600080fd5b5035919050565b60005b83811015613c81578181015183820152602001613c69565b50506000910152565b60008151808452613ca2816020860160208601613c66565b601f01601f19169290920160200192915050565b6020815260006119f36020830184613c8a565b6001600160a01b0381168114610c2457600080fd5b634e487b7160e01b600052604160045260246000fd5b604051601f8201601f1916810167ffffffffffffffff81118282101715613d1d57613d1d613cde565b604052919050565b600067ffffffffffffffff821115613d3f57613d3f613cde565b50601f01601f191660200190565b6000613d60613d5b84613d25565b613cf4565b9050828152838383011115613d7457600080fd5b828260208301376000602084830101529392505050565b600082601f830112613d9c57600080fd5b6119f383833560208501613d4d565b60008060008060808587031215613dc157600080fd5b8435613dcc81613cc9565b93506020850135613ddc81613cc9565b925060408501359150606085013567ffffffffffffffff811115613dff57600080fd5b613e0b87828801613d8b565b91505092959194509250565b600067ffffffffffffffff821115613e3157613e31613cde565b5060051b60200190565b600082601f830112613e4c57600080fd5b8135613e5a613d5b82613e17565b8082825260208201915060208360051b860101925085831115613e7c57600080fd5b602085015b83811015613ea2578035613e9481613cc9565b835260209283019201613e81565b5095945050505050565b600082601f830112613ebd57600080fd5b8135613ecb613d5b82613e17565b8082825260208201915060208360051b860101925085831115613eed57600080fd5b602085015b83811015613ea2578035835260209283019201613ef2565b600082601f830112613f1b57600080fd5b8135613f29613d5b82613e17565b8082825260208201915060208360051b860101925085831115613f4b57600080fd5b602085015b83811015613ea257803567ffffffffffffffff811115613f6f57600080fd5b613f7e886020838a0101613d8b565b84525060209283019201613f50565b60008060008060808587031215613fa357600080fd5b843567ffffffffffffffff811115613fba57600080fd5b613fc687828801613e3b565b945050602085013567ffffffffffffffff811115613fe357600080fd5b613fef87828801613eac565b935050604085013567ffffffffffffffff81111561400c57600080fd5b61401887828801613f0a565b949793965093946060013593505050565b65ffffffffffff81168114610c2457600080fd5b60006020828403121561404f57600080fd5b81356119f381614029565b634e487b7160e01b600052602160045260246000fd5b6008811061408e57634e487b7160e01b600052602160045260246000fd5b9052565b60208101610c0d8284614070565b600080604083850312156140b357600080fd5b8235915060208301356140c581613cc9565b809150509250929050565b803560ff8116811461110157600080fd5b600080604083850312156140f457600080fd5b82359150614104602084016140d0565b90509250929050565b60008083601f84011261411f57600080fd5b50813567ffffffffffffffff81111561413757600080fd5b60208301915083602082850101111561414f57600080fd5b9250929050565b600080600080600080600060c0888a03121561417157600080fd5b87359650614181602089016140d0565b9550604088013561419181613cc9565b9450606088013567ffffffffffffffff8111156141ad57600080fd5b6141b98a828b0161410d565b909550935050608088013567ffffffffffffffff8111156141d957600080fd5b6141e58a828b01613d8b565b92505060a088013567ffffffffffffffff81111561420257600080fd5b61420e8a828b01613d8b565b91505092959891949750929550565b60008060008060006080868803121561423557600080fd5b85359450614245602087016140d0565b9350604086013567ffffffffffffffff81111561426157600080fd5b61426d8882890161410d565b909450925050606086013567ffffffffffffffff81111561428d57600080fd5b61429988828901613d8b565b9150509295509295909350565b600080600080606085870312156142bc57600080fd5b843593506142cc602086016140d0565b9250604085013567ffffffffffffffff8111156142e857600080fd5b6142f48782880161410d565b95989497509550505050565b6000806000806080858703121561431657600080fd5b843567ffffffffffffffff81111561432d57600080fd5b61433987828801613e3b565b945050602085013567ffffffffffffffff81111561435657600080fd5b61436287828801613eac565b935050604085013567ffffffffffffffff81111561437f57600080fd5b61438b87828801613f0a565b925050606085013567ffffffffffffffff8111156143a857600080fd5b8501601f810187136143b957600080fd5b613e0b87823560208401613d4d565b6000602082840312156143da57600080fd5b81356119f381613cc9565b600081518084526020840193506020830160005b828110156144175781518652602095860195909101906001016143f9565b5093949350505050565b60ff60f81b8816815260e06020820152600061444060e0830189613c8a565b82810360408401526144528189613c8a565b90508660608401526001600160a01b03861660808401528460a084015282810360c084015261448181856143e5565b9a9950505050505050505050565b600080600080608085870312156144a557600080fd5b843593506144b5602086016140d0565b925060408501356144c581613cc9565b9150606085013567ffffffffffffffff811115613dff57600080fd5b6000806000606084860312156144f657600080fd5b833561450181613cc9565b925060208401359150604084013567ffffffffffffffff81111561452457600080fd5b61453086828701613d8b565b9150509250925092565b600080600080600060a0868803121561455257600080fd5b853561455d81613cc9565b9450602086013561456d81613cc9565b9350604086013567ffffffffffffffff81111561458957600080fd5b61459588828901613eac565b935050606086013567ffffffffffffffff8111156145b257600080fd5b6145be88828901613eac565b925050608086013567ffffffffffffffff81111561428d57600080fd5b803563ffffffff8116811461110157600080fd5b600080600080600060a0868803121561460757600080fd5b853561461281614029565b9450614620602087016145db565b93506040860135925060608601359150608086013561463e81614029565b809150509295509295909350565b6000806000806060858703121561466257600080fd5b843561466d81613cc9565b935060208501359250604085013567ffffffffffffffff8111156142e857600080fd5b6000602082840312156146a257600080fd5b6119f3826145db565b600080604083850312156146be57600080fd5b82356146c981613cc9565b946020939093013593505050565b600080600080600060a086880312156146ef57600080fd5b85356146fa81613cc9565b9450602086013561470a81613cc9565b93506040860135925060608601359150608086013567ffffffffffffffff81111561428d57600080fd5b600181811c9082168061474857607f821691505b60208210810361476857634e487b7160e01b600052602260045260246000fd5b50919050565b634e487b7160e01b600052603260045260246000fd5b60006020828403121561479657600080fd5b815167ffffffffffffffff8111156147ad57600080fd5b8201601f810184136147be57600080fd5b80516147cc613d5b82613d25565b8181528560208385010111156147e157600080fd5b611eb2826020830160208601613c66565b8183823760009101908152919050565b634e487b7160e01b600052601160045260246000fd5b81810381811115610c0d57610c0d614802565b65ffffffffffff8281168282160390811115610c0d57610c0d614802565b60006020828403121561485b57600080fd5b81516119f381614029565b600081518084526020840193506020830160005b828110156144175781516001600160a01b031686526020958601959091019060010161487a565b600082825180855260208501945060208160051b8301016020850160005b838110156148f157601f198584030188526148db838351613c8a565b60209889019890935091909101906001016148bf565b50909695505050505050565b6080815260006149106080830187614866565b828103602084015261492281876143e5565b9050828103604084015261493681866148a1565b91505082606083015295945050505050565b8381526060810161495c6020830185614070565b826040830152949350505050565b60006020828403121561497c57600080fd5b815180151581146119f357600080fd5b80820180821115610c0d57610c0d614802565b6000602082840312156149b157600080fd5b5051919050565b8082028115828204841417610c0d57610c0d614802565b634e487b7160e01b600052601260045260246000fd5b600082614a0257634e487b7160e01b600052601260045260246000fd5b500490565b60a081526000614a1a60a0830188614866565b8281036020840152614a2c81886143e5565b90508281036040840152614a4081876148a1565b60608401959095525050608001529392505050565b60c081526000614a6860c0830189614866565b8281036020840152614a7a81896143e5565b90508281036040840152614a8e81886148a1565b60608401969096525050608081019290925260a0909101529392505050565b8281526040602082015260006111276040830184613c8a565b60008251614ad8818460208701613c66565b9190910192915050565b65ffffffffffff8181168382160190811115610c0d57610c0d614802565b8981526001600160a01b038916602082015261012060408201526000614b2a61012083018a614866565b8281036060840152614b3c818a6143e5565b9050828103608084015280885180835260208301915060208160051b84010160208b0160005b83811015614b9457601f19868403018552614b7e838351613c8a565b6020958601959093509190910190600101614b62565b505085810360a0870152614ba8818b6148a1565b93505050508560c08401528460e0840152828103610100840152614bcc8185613c8a565b9c9b505050505050505050505050565b60ff8181168382160190811115610c0d57610c0d614802565b6001815b600184111561273b57808504811115614c1457614c14614802565b6001841615614c2257908102905b60019390931c928002614bf9565b600082614c3f57506001610c0d565b81614c4c57506000610c0d565b8160018114614c625760028114614c6c57614c88565b6001915050610c0d565b60ff841115614c7d57614c7d614802565b50506001821b610c0d565b5060208310610133831016604e8410600b8410161715614cab575081810a610c0d565b614cb86000198484614bf5565b8060001904821115614ccc57614ccc614802565b029392505050565b60006119f360ff841683614c30565b84815260ff841660208201528260408201526080606082015260006110536080830184613c8a565b85815260ff8516602082015283604082015260a060608201526000614d3360a0830185613c8a565b8281036080840152614d458185613c8a565b9897505050505050505056fe7c712897014dbe49c045ef1299aa2d5f9e67e48eea4403efa21f1e0f3ac0cb017c712897014dbe49c045ef1299aa2d5f9e67e48eea4403efa21f1e0f3ac0cb00a164736f6c634300081b000a",
  "linkReferences": {},
  "deployedLinkReferences": {}
}