{
  "_format": "hh-sol-artifact-1",
  "contractName": "TokamakTimelockControllerV2",
  "sourceName": "contracts/TokamakTimelockControllerV2.sol",
  "abi": [
    {
      "inputs": [],
      "stateMutability": "nonpayable",
      "type": "constructor"
    },
    {
      "inputs": [],
      "name": "AccessControlBadConfirmation",
      "type": "error"
    },
    {
      "inputs": [
        {
          "internalType": "address",
          "name": "account",
          "type": "address"
        },
        {
          "internalType": "bytes32",
          "name": "neededRole",
          "type": "bytes32"
        }
      ],
      "name": "AccessControlUnauthorizedAccount",
      "type": "error"
    },
    {
      "inputs": [],
      "name": "FailedInnerCall",
      "type": "error"
    },
    {
      "inputs": [],
      "name": "InvalidInitialization",
      "type": "error"
    },
    {
      "inputs": [],
      "name": "NotInitializing",
      "type": "error"
    },
    {
      "inputs": [
        {
          "internalType": "uint256",
          "name": "delay",
          "type": "uint256"
        },
        {
          "internalType": "uint256",
          "name": "minDelay",
          "type": "uint256"
        }
      ],
      "name": "TimelockInsufficientDelay",
      "type": "error"
    },
    {
      "inputs": [
        {
          "internalType": "uint256",
          "name": "targets",
          "type": "uint256"
        },
        {
          "internalType": "uint256",
          "name": "payloads",
          "type": "uint256"
        },
        {
          "internalType": "uint256",
          "name": "values",
          "type": "uint256"
        }
      ],
      "name": "TimelockInvalidOperationLength",
      "type": "error"
    },
    {
      "inputs": [
        {
          "internalType": "address",
          "name": "caller",
          "type": "address"
        }
      ],
      "name": "TimelockUnauthorizedCaller",
      "type": "error"
    },
    {
      "inputs": [
        {
          "internalType": "bytes32",
          "name": "predecessorId",
          "type": "bytes32"
        }
      ],
      "name": "TimelockUnexecutedPredecessor",
      "type": "error"
    },
    {
      "inputs": [
        {
          "internalType": "bytes32",
          "name": "operationId",
          "type": "bytes32"
        },
        {
          "internalType": "bytes32",
          "name": "expectedStates",
          "type": "bytes32"
        }
      ],
      "name": "TimelockUnexpectedOperationState",
      "type": "error"
    },
    {
      "anonymous": false,
      "inputs": [
        {
          "indexed": true,
          "internalType": "bytes32",
          "name": "id",
          "type": "bytes32"
        },
        {
          "indexed": true,
          "internalType": "uint256",
          "name": "index",
          "type": "uint256"
        },
        {
          "indexed": false,
          "internalType": "address",
          "name": "target",
          "type": "address"
        },
        {
          "indexed": false,
          "internalType": "uint256",
          "name": "value",
          "type": "uint256"
        },
        {
          "indexed": false,
          "internalType": "bytes",
          "name": "data",
          "type": "bytes"
        }
      ],
      "name": "CallExecuted",
      "type": "event"
    },
    {
      "anonymous": false,
      "inputs": [
        {
          "indexed": true,
          "internalType": "bytes32",
          "name": "id",
          "type": "bytes32"
        },
        {
          "indexed": false,
          "internalType": "bytes32",
          "name": "salt",
          "type": "bytes32"
        }
      ],
      "name": "CallSalt",
      "type": "event"
    },
    {
      "anonymous": false,
      "inputs": [
        {
          "indexed": true,
          "internalType": "bytes32",
          "name": "id",
          "type": "bytes32"
        },
        {
          "indexed": true,
          "internalType": "uint256",
          "name": "index",
          "type": "uint256"
        },
        {
          "indexed": false,
          "internalType": "address",
          "name": "target",
          "type": "address"
        },
        {
          "indexed": false,
          "internalType": "uint256",
          "name": "value",
          "type": "uint256"
        },
        {
          "indexed": false,
          "internalType": "bytes",
          "name": "data",
          "type": "bytes"
        },
        {
          "indexed": false,
          "internalType": "bytes32",
          "name": "predecessor",
          "type": "bytes32"
        },
        {
          "indexed": false,
          "internalType": "uint256",
          "name": "delay",
          "type": "uint256"
        }
      ],
      "name": "CallScheduled",
      "type": "event"
    },
    {
      "anonymous": false,
      "inputs": [
        {
          "indexed": true,
          "internalType": "bytes32",
          "name": "id",
          "type": "bytes32"
        }
      ],
      "name": "Cancelled",
      "type": "event"
    },
    {
      "anonymous": false,
      "inputs": [
        {
          "indexed": false,
          "internalType": "uint64",
          "name": "version",
          "type": "uint64"
        }
      ],
      "name": "Initialized",
      "type": "event"
    },
    {
      "anonymous": false,
      "inputs": [
        {
          "indexed": false,
          "internalType": "uint256",
          "name": "oldDuration",
          "type": "uint256"
        },
        {
          "indexed": false,
          "internalType": "uint256",
          "name": "newDuration",
          "type": "uint256"
        }
      ],
      "name": "MinDelayChange",
      "type": "event"
    },
    {
      "anonymous": false,
      "inputs": [
        {
          "indexed": true,
          "internalType": "bytes32",
          "name": "role",
          "type": "bytes32"
        },
        {
          "indexed": true,
          "internalType": "bytes32",
          "name": "previousAdminRole",
          "type": "bytes32"
        },
        {
          "indexed": true,
          "internalType": "bytes32",
          "name": "newAdminRole",
          "type": "bytes32"
        }
      ],
      "name": "RoleAdminChanged",
      "type": "event"
    },
    {
      "anonymous": false,
      "inputs": [
        {
          "indexed": true,
          "internalType": "bytes32",
          "name": "role",
          "type": "bytes32"
        },
        {
          "indexed": true,
          "internalType": "address",
          "name": "account",
          "type": "address"
        },
        {
          "indexed": true,
          "internalType": "address",
          "name": "sender",
          "type": "address"
        }
      ],
      "name": "RoleGranted",
      "type": "event"
    },
    {
      "anonymous": false,
      "inputs": [
        {
          "indexed": true,
          "internalType": "bytes32",
          "name": "role",
          "type": "bytes32"
        },
        {
          "indexed": true,
          "internalType": "address",
          "name": "account",
          "type": "address"
        },
        {
          "indexed": true,
          "internalType": "address",
          "name": "sender",
          "type": "address"
        }
      ],
      "name": "RoleRevoked",
      "type": "event"
    },
    {
      "inputs": [],
      "name": "CANCELLER_ROLE",
      "outputs": [
        {
          "internalType": "bytes32",
          "name": "",
          "type": "bytes32"
        }
      ],
      "stateMutability": "view",
      "type": "function"
    },
    {
      "inputs": [],
      "name": "DEFAULT_ADMIN_ROLE",
      "outputs": [
        {
          "internalType": "bytes32",
          "name": "",
          "type": "bytes32"
        }
      ],
      "stateMutability": "view",
      "type": "function"
    },
    {
      "inputs": [],
      "name": "EXECUTOR_ROLE",
      "outputs": [
        {
          "internalType": "bytes32",
          "name": "",
          "type": "bytes32"
        }
      ],
      "stateMutability": "view",
      "type": "function"
    },
    {
      "inputs": [],
      "name": "PROPOSER_ROLE",
      "outputs": [
        {
          "internalType": "bytes32",
          "name": "",
          "type": "bytes32"
        }
      ],
      "stateMutability": "view",
      "type": "function"
    },
    {
      "inputs": [
        {
          "internalType": "bytes32",
          "name": "id",
          "type": "bytes32"
        }
      ],
      "name": "cancel",
      "outputs": [],
      "stateMutability": "nonpayable",
      "type": "function"
    },
    {
      "inputs": [
        {
          "internalType": "address",
          "name": "target",
          "type": "address"
        },
        {
          "internalType": "uint256",
          "name": "value",
          "type": "uint256"
        },
        {
          "internalType": "bytes",
          "name": "payload",
          "type": "bytes"
        },
        {
          "internalType": "bytes32",
          "name": "predecessor",
          "type": "bytes32"
        },
        {
          "internalType": "bytes32",
          "name": "salt",
          "type": "bytes32"
        }
      ],
      "name": "execute",
      "outputs": [],
      "stateMutability": "payable",
      "type": "function"
    },
    {
      "inputs": [
        {
          "internalType": "address[]",
          "name": "targets",
          "type": "address[]"
        },
        {
          "internalType": "uint256[]",
          "name": "values",
          "type": "uint256[]"
        },
        {
          "internalType": "bytes[]",
          "name": "payloads",
          "type": "bytes[]"
        },
        {
          "internalType": "bytes32",
          "name": "predecessor",
          "type": "bytes32"
        },
        {
          "internalType": "bytes32",
          "name": "salt",
          "type": "bytes32"
        }
      ],
      "name": "executeBatch",
      "outputs": [],
      "stateMutability": "payable",
      "type": "function"
    },
    {
      "inputs": [],
      "name": "getMinDelay",
      "outputs": [
        {
          "internalType": "uint256",
          "name": "",
          "type": "uint256"
        }
      ],
      "stateMutability": "view",
      "type": "function"
    },
    {
      "inputs": [
        {
          "internalType": "bytes32",
          "name": "id",
          "type": "bytes32"
        }
      ],
      "name": "getOperationState",
      "outputs": [
        {
          "internalType": "enum TimelockControllerUpgradeable.OperationState",
          "name": "",
          "type": "uint8"
        }
      ],
      "stateMutability": "view",
      "type": "function"
    },
    {
      "inputs": [
        {
          "internalType": "bytes32",
          "name": "role",
          "type": "bytes32"
        }
      ],
      "name": "getRoleAdmin",
      "outputs": [
        {
          "internalType": "bytes32",
          "name": "",
          "type": "bytes32"
        }
      ],
      "stateMutability": "view",
      "type": "function"
    },
    {
      "inputs": [
        {
          "internalType": "bytes32",
          "name": "id",
          "type": "bytes32"
        }
      ],
      "name": "getTimestamp",
      "outputs": [
        {
          "internalType": "uint256",
          "name": "",
          "type": "uint256"
        }
      ],
      "stateMutability": "view",
      "type": "function"
    },
    {
      "inputs": [
        {
          "internalType": "bytes32",
          "name": "role",
          "type": "bytes32"
        },
        {
          "internalType": "address",
          "name": "account",
          "type": "address"
        }
      ],
      "name": "grantRole",
      "outputs": [],
      "stateMutability": "nonpayable",
      "type": "function"
    },
    {
      "inputs": [
        {
          "internalType": "bytes32",
          "name": "role",
          "type": "bytes32"
        },
        {
          "internalType": "address",
          "name": "account",
          "type": "address"
        }
      ],
      "name": "hasRole",
      "outputs": [
        {
          "internalType": "bool",
          "name": "",
          "type": "bool"
        }
      ],
      "stateMutability": "view",
      "type": "function"
    },
    {
      "inputs": [
        {
          "internalType": "address",
          "name": "target",
          "type": "address"
        },
        {
          "internalType": "uint256",
          "name": "value",
          "type": "uint256"
        },
        {
          "internalType": "bytes",
          "name": "data",
          "type": "bytes"
        },
        {
          "internalType": "bytes32",
          "name": "predecessor",
          "type": "bytes32"
        },
        {
          "internalType": "bytes32",
          "name": "salt",
          "type": "bytes32"
        }
      ],
      "name": "hashOperation",
      "outputs": [
        {
          "internalType": "bytes32",
          "name": "",
          "type": "bytes32"
        }
      ],
      "stateMutability": "pure",
      "type": "function"
    },
    {
      "inputs": [
        {
          "internalType": "address[]",
          "name": "targets",
          "type": "address[]"
        },
        {
          "internalType": "uint256[]",
          "name": "values",
          "type": "uint256[]"
        },
        {
          "internalType": "bytes[]",
          "name": "payloads",
          "type": "bytes[]"
        },
        {
          "internalType": "bytes32",
          "name": "predecessor",
          "type": "bytes32"
        },
        {
          "internalType": "bytes32",
          "name": "salt",
          "type": "bytes32"
        }
      ],
      "name": "hashOperationBatch",
      "outputs": [
        {
          "internalType": "bytes32",
          "name": "",
          "type": "bytes32"
        }
      ],
      "stateMutability": "pure",
      "type": "function"
    },
    {
      "inputs": [
        {
          "internalType": "uint256",
          "name": "minDelay",
          "type": "uint256"
        },
        {
          "internalType": "address[]",
          "name": "proposers",
          "type": "address[]"
        },
        {
          "internalType": "address[]",
          "name": "executors",
          "type": "address[]"
        },
        {
          "internalType": "address",
          "name": "admin",
          "type": "address"
        }
      ],
      "name": "initialize",
      "outputs": [],
      "stateMutability": "nonpayable",
      "type": "function"
    },
    {
      "inputs": [
        {
          "internalType": "bytes32",
          "name": "id",
          "type": "bytes32"
        }
      ],
      "name": "isOperation",
      "outputs": [
        {
          "internalType": "bool",
          "name": "",
          "type": "bool"
        }
      ],
      "stateMutability": "view",
      "type": "function"
    },
    {
      "inputs": [
        {
          "internalType": "bytes32",
          "name": "id",
          "type": "bytes32"
        }
      ],
      "name": "isOperationDone",
      "outputs": [
        {
          "internalType": "bool",
          "name": "",
          "type": "bool"
        }
      ],
      "stateMutability": "view",
      "type": "function"
    },
    {
      "inputs": [
        {
          "internalType": "bytes32",
          "name": "id",
          "type": "bytes32"
        }
      ],
      "name": "isOperationPending",
      "outputs": [
        {
          "internalType": "bool",
          "name": "",
          "type": "bool"
        }
      ],
      "stateMutability": "view",
      "type": "function"
    },
    {
      "inputs": [
        {
          "internalType": "bytes32",
          "name": "id",
          "type": "bytes32"
        }
      ],
      "name": "isOperationReady",
      "outputs": [
        {
          "internalType": "bool",
          "name": "",
          "type": "bool"
        }
      ],
      "stateMutability": "view",
      "type": "function"
    },
    {
      "inputs": [
        {
          "internalType": "address",
          "name": "",
          "type": "address"
        },
        {
          "internalType": "address",
          "name": "",
          "type": "address"
        },
        {
          "internalType": "uint256[]",
          "name": "",
          "type": "uint256[]"
        },
        {
          "internalType": "uint256[]",
          "name": "",
          "type": "uint256[]"
        },
        {
          "internalType": "bytes",
          "name": "",
          "type": "bytes"
        }
      ],
      "name": "onERC1155BatchReceived",
      "outputs": [
        {
          "internalType": "bytes4",
          "name": "",
          "type": "bytes4"
        }
      ],
      "stateMutability": "nonpayable",
      "type": "function"
    },
    {
      "inputs": [
        {
          "internalType": "address",
          "name": "",
          "type": "address"
        },
        {
          "internalType": "address",
          "name": "",
          "type": "address"
        },
        {
          "internalType": "uint256",
          "name": "",
          "type": "uint256"
        },
        {
          "internalType": "uint256",
          "name": "",
          "type": "uint256"
        },
        {
          "internalType": "bytes",
          "name": "",
          "type": "bytes"
        }
      ],
      "name": "onERC1155Received",
      "outputs": [
        {
          "internalType": "bytes4",
          "name": "",
          "type": "bytes4"
        }
      ],
      "stateMutability": "nonpayable",
      "type": "function"
    },
    {
      "inputs": [
        {
          "internalType": "address",
          "name": "",
          "type": "address"
        },
        {
          "internalType": "address",
          "name": "",
          "type": "address"
        },
        {
          "internalType": "uint256",
          "name": "",
          "type": "uint256"
        },
        {
          "internalType": "bytes",
          "name": "",
          "type": "bytes"
        }
      ],
      "name": "onERC721Received",
      "outputs": [
        {
          "internalType": "bytes4",
          "name": "",
          "type": "bytes4"
        }
      ],
      "stateMutability": "nonpayable",
      "type": "function"
    },
    {
      "inputs": [
        {
          "internalType": "bytes32",
          "name": "role",
          "type": "bytes32"
        },
        {
          "internalType": "address",
          "name": "callerConfirmation",
          "type": "address"
        }
      ],
      "name": "renounceRole",
      "outputs": [],
      "stateMutability": "nonpayable",
      "type": "function"
    },
    {
      "inputs": [
        {
          "internalType": "bytes32",
          "name": "role",
          "type": "bytes32"
        },
        {
          "internalType": "address",
          "name": "account",
          "type": "address"
        }
      ],
      "name": "revokeRole",
      "outputs": [],
      "stateMutability": "nonpayable",
      "type": "function"
    },
    {
      "inputs": [
        {
          "internalType": "address",
          "name": "target",
          "type": "address"
        },
        {
          "internalType": "uint256",
          "name": "value",
          "type": "uint256"
        },
        {
          "internalType": "bytes",
          "name": "data",
          "type": "bytes"
        },
        {
          "internalType": "bytes32",
          "name": "predecessor",
          "type": "bytes32"
        },
        {
          "internalType": "bytes32",
          "name": "salt",
          "type": "bytes32"
        },
        {
          "internalType": "uint256",
          "name": "delay",
          "type": "uint256"
        }
      ],
      "name": "schedule",
      "outputs": [],
      "stateMutability": "nonpayable",
      "type": "function"
    },
    {
      "inputs": [
        {
          "internalType": "address[]",
          "name": "targets",
          "type": "address[]"
        },
        {
          "internalType": "uint256[]",
          "name": "values",
          "type": "uint256[]"
        },
        {
          "internalType": "bytes[]",
          "name": "payloads",
          "type": "bytes[]"
        },
        {
          "internalType": "bytes32",
          "name": "predecessor",
          "type": "bytes32"
        },
        {
          "internalType": "bytes32",
          "name": "salt",
          "type": "bytes32"
        },
        {
          "internalType": "uint256",
          "name": "delay",
          "type": "uint256"
        }
      ],
      "name": "scheduleBatch",
      "outputs": [],
      "stateMutability": "nonpayable",
      "type": "function"
    },
    {
      "inputs": [
        {
          "internalType": "bytes4",
          "name": "interfaceId",
          "type": "bytes4"
        }
      ],
      "name": "supportsInterface",
      "outputs": [
        {
          "internalType": "bool",
          "name": "",
          "type": "bool"
        }
      ],
      "stateMutability": "view",
      "type": "function"
    },
    {
      "inputs": [
        {
          "internalType": "uint256",
          "name": "newDelay",
          "type": "uint256"
        }
      ],
      "name": "updateDelay",
      "outputs": [],
      "stateMutability": "nonpayable",
      "type": "function"
    },
    {
      "stateMutability": "payable",
      "type": "receive"
    }
  ],
  "bytecode": "0x6080604052348015600f57600080fd5b506016601a565b60ca565b7ff0c57e16840df040f15088dc2f81fe391c3923bec73e23a9662efc9c229c6a00805468010000000000000000900460ff161560695760405163f92ee8a960e01b815260040160405180910390fd5b80546001600160401b039081161460c75780546001600160401b0319166001600160401b0390811782556040519081527fc7f505b2f371ae2175ee4913f4499e1f2633a7b5936321eed1cdaeb6115181d29060200160405180910390a15b50565b612126806100d96000396000f3fe6080604052600436106101c65760003560e01c80638065657f116100f7578063bc197c8111610095578063d547741f11610064578063d547741f14610618578063e38335e514610638578063f23a6e611461064b578063f27a0c921461067757600080fd5b8063bc197c8114610560578063c4c4c7b31461058c578063c4d252f5146105ac578063d45c4435146105cc57600080fd5b806391d14854116100d157806391d1485414610492578063a217fddf146104f7578063b08e51c01461050c578063b1c5f4271461054057600080fd5b80638065657f1461041e5780638f2a0bb01461043e5780638f61f4f51461045e57600080fd5b80632ab0f5291161016457806336568abe1161013e57806336568abe14610391578063584b153e146103b157806364d62353146103d15780637958004c146103f157600080fd5b80632ab0f529146103315780632f2ff15d1461035157806331d507501461037157600080fd5b8063134008d3116101a0578063134008d31461026b57806313bc9f201461027e578063150b7a021461029e578063248a9ca3146102e257600080fd5b806301d5062a146101d257806301ffc9a7146101f457806307bd02651461022957600080fd5b366101cd57005b600080fd5b3480156101de57600080fd5b506101f26101ed366004611795565b6106ab565b005b34801561020057600080fd5b5061021461020f36600461180a565b610781565b60405190151581526020015b60405180910390f35b34801561023557600080fd5b5061025d7fd8aa0f3194971a2a116679f7c2090f6939c8d4e01a2a8d7e41d55e5351469e6381565b604051908152602001610220565b6101f2610279366004611834565b610792565b34801561028a57600080fd5b506102146102993660046118a0565b61088a565b3480156102aa57600080fd5b506102c96102b9366004611970565b630a85bd0160e11b949350505050565b6040516001600160e01b03199091168152602001610220565b3480156102ee57600080fd5b5061025d6102fd3660046118a0565b60009081527f02dd7bc7dec4dceedda775e58dd541e08a116c6c53815c0bd028192f7b626800602052604090206001015490565b34801561033d57600080fd5b5061021461034c3660046118a0565b6108b0565b34801561035d57600080fd5b506101f261036c3660046119d8565b6108b9565b34801561037d57600080fd5b5061021461038c3660046118a0565b610903565b34801561039d57600080fd5b506101f26103ac3660046119d8565b610928565b3480156103bd57600080fd5b506102146103cc3660046118a0565b610960565b3480156103dd57600080fd5b506101f26103ec3660046118a0565b6109a6565b3480156103fd57600080fd5b5061041161040c3660046118a0565b610a3d565b6040516102209190611a1a565b34801561042a57600080fd5b5061025d610439366004611834565b610aa7565b34801561044a57600080fd5b506101f2610459366004611a87565b610ae6565b34801561046a57600080fd5b5061025d7fb09aa5aeb3702cfd50b6b62bc4532604938f21248a27a1d5ca736082b6819cc181565b34801561049e57600080fd5b506102146104ad3660046119d8565b60009182527f02dd7bc7dec4dceedda775e58dd541e08a116c6c53815c0bd028192f7b626800602090815260408084206001600160a01b0393909316845291905290205460ff1690565b34801561050357600080fd5b5061025d600081565b34801561051857600080fd5b5061025d7ffd643c72710c63c0180259aba6b2d05451e3591a24e58b62239378085726f78381565b34801561054c57600080fd5b5061025d61055b366004611b45565b610c8a565b34801561056c57600080fd5b506102c961057b366004611c8b565b63bc197c8160e01b95945050505050565b34801561059857600080fd5b506101f26105a7366004611da6565b610ccf565b3480156105b857600080fd5b506101f26105c73660046118a0565b610dc4565b3480156105d857600080fd5b5061025d6105e73660046118a0565b60009081527f9a37c2aa9d186a0969ff8a8267bf4e07e864c2f2768f5040949e28a624fb3600602052604090205490565b34801561062457600080fd5b506101f26106333660046119d8565b610e91565b6101f2610646366004611b45565b610ed5565b34801561065757600080fd5b506102c9610666366004611e29565b63f23a6e6160e01b95945050505050565b34801561068357600080fd5b507f9a37c2aa9d186a0969ff8a8267bf4e07e864c2f2768f5040949e28a624fb36015461025d565b7fb09aa5aeb3702cfd50b6b62bc4532604938f21248a27a1d5ca736082b6819cc16106d5816110b5565b60006106e5898989898989610aa7565b90506106f181846110c2565b6000817f4cf4410cc57040e44862ef0f45f3dd5a5e02db8eb8add648d4b0e236f1d07dca8b8b8b8b8b8a60405161072d96959493929190611eab565b60405180910390a3831561077657807f20fda5fd27a1ea7bf5b9567f143ac5470bb059374a27e8f67cb44f946f6d03878560405161076d91815260200190565b60405180910390a25b505050505050505050565b600061078c82611197565b92915050565b600080527f52fce5e8a5d0d9e8d1ea29f4525e512e9c27bf92cae50374d497f918ab48f3826020527fdd1864c1ab258d549957f6a4d7e3a5005661df58241dbbc1700fb170ef061546547fd8aa0f3194971a2a116679f7c2090f6939c8d4e01a2a8d7e41d55e5351469e639060ff1661080f5761080f81336111bc565b600061081f888888888888610aa7565b905061082b8185611234565b61083788888888611282565b6000817fc2617efa69bab66782fa219543714338489c4e9e178271560a91b82c3f612b588a8a8a8a60405161086f9493929190611ee9565b60405180910390a3610880816112fa565b5050505050505050565b600060025b61089883610a3d565b60038111156108a9576108a9611a04565b1492915050565b6000600361088f565b60008281527f02dd7bc7dec4dceedda775e58dd541e08a116c6c53815c0bd028192f7b62680060205260409020600101546108f3816110b5565b6108fd8383611345565b50505050565b60008061090f83610a3d565b600381111561092057610920611a04565b141592915050565b6001600160a01b03811633146109515760405163334bd91960e11b815260040160405180910390fd5b61095b8282611414565b505050565b60008061096c83610a3d565b9050600181600381111561098257610982611a04565b148061099f5750600281600381111561099d5761099d611a04565b145b9392505050565b7f9a37c2aa9d186a0969ff8a8267bf4e07e864c2f2768f5040949e28a624fb3600333081146109f85760405163e2850c5960e01b81526001600160a01b03821660048201526024015b60405180910390fd5b600182015460408051918252602082018590527f11c24f4ead16507c69ac467fbd5e4eed5fb5c699626d2cc6d66421df253886d5910160405180910390a15060010155565b60008181527f9a37c2aa9d186a0969ff8a8267bf4e07e864c2f2768f5040949e28a624fb3600602052604081205480600003610a7c5750600092915050565b60018103610a8d5750600392915050565b42811115610a9e5750600192915050565b50600292915050565b6000868686868686604051602001610ac496959493929190611eab565b6040516020818303038152906040528051906020012090509695505050505050565b7fb09aa5aeb3702cfd50b6b62bc4532604938f21248a27a1d5ca736082b6819cc1610b10816110b5565b8887141580610b1f5750888514155b15610b67576040517fffb03211000000000000000000000000000000000000000000000000000000008152600481018a905260248101869052604481018890526064016109ef565b6000610b798b8b8b8b8b8b8b8b610c8a565b9050610b8581846110c2565b60005b8a811015610c3b5780827f4cf4410cc57040e44862ef0f45f3dd5a5e02db8eb8add648d4b0e236f1d07dca8e8e85818110610bc557610bc5611f1c565b9050602002016020810190610bda9190611f32565b8d8d86818110610bec57610bec611f1c565b905060200201358c8c87818110610c0557610c05611f1c565b9050602002810190610c179190611f4d565b8c8b604051610c2b96959493929190611eab565b60405180910390a3600101610b88565b508315610c7d57807f20fda5fd27a1ea7bf5b9567f143ac5470bb059374a27e8f67cb44f946f6d038785604051610c7491815260200190565b60405180910390a25b5050505050505050505050565b60008888888888888888604051602001610cab98979695949392919061202e565b60405160208183030381529060405280519060200120905098975050505050505050565b7ff0c57e16840df040f15088dc2f81fe391c3923bec73e23a9662efc9c229c6a0080546002919068010000000000000000900460ff1680610d1e5750805467ffffffffffffffff808416911610155b15610d3c5760405163f92ee8a960e01b815260040160405180910390fd5b805468ffffffffffffffffff191667ffffffffffffffff83161768010000000000000000178155610d6f868686866114ba565b805468ff00000000000000001916815560405167ffffffffffffffff831681527fc7f505b2f371ae2175ee4913f4499e1f2633a7b5936321eed1cdaeb6115181d29060200160405180910390a1505050505050565b7ffd643c72710c63c0180259aba6b2d05451e3591a24e58b62239378085726f783610dee816110b5565b7f9a37c2aa9d186a0969ff8a8267bf4e07e864c2f2768f5040949e28a624fb3600610e1883610960565b610e545782610e2760026114ce565b610e3160016114ce565b604051635ead8eb560e01b815260048101939093521760248201526044016109ef565b6000838152602082905260408082208290555184917fbaa1eb22f2a492ba1a5fea61b8df4d27c6c8b5f3971e63bb58fa14ff72eedb7091a2505050565b60008281527f02dd7bc7dec4dceedda775e58dd541e08a116c6c53815c0bd028192f7b6268006020526040902060010154610ecb816110b5565b6108fd8383611414565b600080527f52fce5e8a5d0d9e8d1ea29f4525e512e9c27bf92cae50374d497f918ab48f3826020527fdd1864c1ab258d549957f6a4d7e3a5005661df58241dbbc1700fb170ef061546547fd8aa0f3194971a2a116679f7c2090f6939c8d4e01a2a8d7e41d55e5351469e639060ff16610f5257610f5281336111bc565b8786141580610f615750878414155b15610fa9576040517fffb032110000000000000000000000000000000000000000000000000000000081526004810189905260248101859052604481018790526064016109ef565b6000610fbb8a8a8a8a8a8a8a8a610c8a565b9050610fc78185611234565b60005b8981101561109f5760008b8b83818110610fe657610fe6611f1c565b9050602002016020810190610ffb9190611f32565b905060008a8a8481811061101157611011611f1c565b9050602002013590503660008a8a8681811061102f5761102f611f1c565b90506020028101906110419190611f4d565b9150915061105184848484611282565b84867fc2617efa69bab66782fa219543714338489c4e9e178271560a91b82c3f612b58868686866040516110889493929190611ee9565b60405180910390a350505050806001019050610fca565b506110a9816112fa565b50505050505050505050565b6110bf81336111bc565b50565b7f9a37c2aa9d186a0969ff8a8267bf4e07e864c2f2768f5040949e28a624fb36006110ec83610903565b1561111e57826110fc60006114ce565b604051635ead8eb560e01b8152600481019290925260248201526044016109ef565b60006111487f9a37c2aa9d186a0969ff8a8267bf4e07e864c2f2768f5040949e28a624fb36015490565b90508083101561117557604051635433660960e01b815260048101849052602481018290526044016109ef565b61117f83426120e8565b60009485526020929092525060409092209190915550565b60006001600160e01b03198216630271189760e51b148061078c575061078c826114f1565b60008281527f02dd7bc7dec4dceedda775e58dd541e08a116c6c53815c0bd028192f7b626800602090815260408083206001600160a01b038516845290915290205460ff166112305760405163e2517d3f60e01b81526001600160a01b0382166004820152602481018390526044016109ef565b5050565b61123d8261088a565b61124c57816110fc60026114ce565b8015801590611261575061125f816108b0565b155b156112305760405163121534c360e31b8152600481018290526024016109ef565b600080856001600160a01b03168585856040516112a0929190612109565b60006040518083038185875af1925050503d80600081146112dd576040519150601f19603f3d011682016040523d82523d6000602084013e6112e2565b606091505b50915091506112f18282611526565b50505050505050565b7f9a37c2aa9d186a0969ff8a8267bf4e07e864c2f2768f5040949e28a624fb36006113248261088a565b61133357816110fc60026114ce565b60009182526020526040902060019055565b60008281527f02dd7bc7dec4dceedda775e58dd541e08a116c6c53815c0bd028192f7b626800602081815260408084206001600160a01b038616855290915282205460ff1661140a576000848152602082815260408083206001600160a01b03871684529091529020805460ff191660011790556113c03390565b6001600160a01b0316836001600160a01b0316857f2f8788117e7eff1d82e926ec794901d17c78024a50270940304540a733656f0d60405160405180910390a4600191505061078c565b600091505061078c565b60008281527f02dd7bc7dec4dceedda775e58dd541e08a116c6c53815c0bd028192f7b626800602081815260408084206001600160a01b038616855290915282205460ff161561140a576000848152602082815260408083206001600160a01b0387168085529252808320805460ff1916905551339287917ff6391f5c32d9c69d2a47ea670b442974b53935d1edc7fd64eb21e047a839171b9190a4600191505061078c565b6114c2611542565b6108fd84848484611592565b60008160038111156114e2576114e2611a04565b600160ff919091161b92915050565b60006001600160e01b03198216637965db0b60e01b148061078c57506301ffc9a760e01b6001600160e01b031983161461078c565b60608261153b5761153682611707565b61078c565b508061078c565b7ff0c57e16840df040f15088dc2f81fe391c3923bec73e23a9662efc9c229c6a005468010000000000000000900460ff1661159057604051631afcd79f60e31b815260040160405180910390fd5b565b61159a611542565b7f9a37c2aa9d186a0969ff8a8267bf4e07e864c2f2768f5040949e28a624fb36006115c6600030611345565b506001600160a01b038216156115e3576115e1600083611345565b505b60005b8451811015611672576116327fb09aa5aeb3702cfd50b6b62bc4532604938f21248a27a1d5ca736082b6819cc186838151811061162557611625611f1c565b6020026020010151611345565b506116697ffd643c72710c63c0180259aba6b2d05451e3591a24e58b62239378085726f78386838151811061162557611625611f1c565b506001016115e6565b5060005b83518110156116be576116b57fd8aa0f3194971a2a116679f7c2090f6939c8d4e01a2a8d7e41d55e5351469e6385838151811061162557611625611f1c565b50600101611676565b50600181018590556040805160008152602081018790527f11c24f4ead16507c69ac467fbd5e4eed5fb5c699626d2cc6d66421df253886d5910160405180910390a15050505050565b8051156117175780518082602001fd5b604051630a12f52160e11b815260040160405180910390fd5b80356001600160a01b038116811461174757600080fd5b919050565b60008083601f84011261175e57600080fd5b50813567ffffffffffffffff81111561177657600080fd5b60208301915083602082850101111561178e57600080fd5b9250929050565b600080600080600080600060c0888a0312156117b057600080fd5b6117b988611730565b965060208801359550604088013567ffffffffffffffff8111156117dc57600080fd5b6117e88a828b0161174c565b989b979a50986060810135976080820135975060a09091013595509350505050565b60006020828403121561181c57600080fd5b81356001600160e01b03198116811461099f57600080fd5b60008060008060008060a0878903121561184d57600080fd5b61185687611730565b955060208701359450604087013567ffffffffffffffff81111561187957600080fd5b61188589828a0161174c565b979a9699509760608101359660809091013595509350505050565b6000602082840312156118b257600080fd5b5035919050565b634e487b7160e01b600052604160045260246000fd5b604051601f8201601f1916810167ffffffffffffffff811182821017156118f8576118f86118b9565b604052919050565b600082601f83011261191157600080fd5b813567ffffffffffffffff81111561192b5761192b6118b9565b61193e601f8201601f19166020016118cf565b81815284602083860101111561195357600080fd5b816020850160208301376000918101602001919091529392505050565b6000806000806080858703121561198657600080fd5b61198f85611730565b935061199d60208601611730565b925060408501359150606085013567ffffffffffffffff8111156119c057600080fd5b6119cc87828801611900565b91505092959194509250565b600080604083850312156119eb57600080fd5b823591506119fb60208401611730565b90509250929050565b634e487b7160e01b600052602160045260246000fd5b6020810160048310611a3c57634e487b7160e01b600052602160045260246000fd5b91905290565b60008083601f840112611a5457600080fd5b50813567ffffffffffffffff811115611a6c57600080fd5b6020830191508360208260051b850101111561178e57600080fd5b600080600080600080600080600060c08a8c031215611aa557600080fd5b893567ffffffffffffffff811115611abc57600080fd5b611ac88c828d01611a42565b909a5098505060208a013567ffffffffffffffff811115611ae857600080fd5b611af48c828d01611a42565b90985096505060408a013567ffffffffffffffff811115611b1457600080fd5b611b208c828d01611a42565b9a9d999c50979a969997986060880135976080810135975060a0013595509350505050565b60008060008060008060008060a0898b031215611b6157600080fd5b883567ffffffffffffffff811115611b7857600080fd5b611b848b828c01611a42565b909950975050602089013567ffffffffffffffff811115611ba457600080fd5b611bb08b828c01611a42565b909750955050604089013567ffffffffffffffff811115611bd057600080fd5b611bdc8b828c01611a42565b999c989b509699959896976060870135966080013595509350505050565b600067ffffffffffffffff821115611c1457611c146118b9565b5060051b60200190565b600082601f830112611c2f57600080fd5b8135611c42611c3d82611bfa565b6118cf565b8082825260208201915060208360051b860101925085831115611c6457600080fd5b602085015b83811015611c81578035835260209283019201611c69565b5095945050505050565b600080600080600060a08688031215611ca357600080fd5b611cac86611730565b9450611cba60208701611730565b9350604086013567ffffffffffffffff811115611cd657600080fd5b611ce288828901611c1e565b935050606086013567ffffffffffffffff811115611cff57600080fd5b611d0b88828901611c1e565b925050608086013567ffffffffffffffff811115611d2857600080fd5b611d3488828901611900565b9150509295509295909350565b600082601f830112611d5257600080fd5b8135611d60611c3d82611bfa565b8082825260208201915060208360051b860101925085831115611d8257600080fd5b602085015b83811015611c8157611d9881611730565b835260209283019201611d87565b60008060008060808587031215611dbc57600080fd5b84359350602085013567ffffffffffffffff811115611dda57600080fd5b611de687828801611d41565b935050604085013567ffffffffffffffff811115611e0357600080fd5b611e0f87828801611d41565b925050611e1e60608601611730565b905092959194509250565b600080600080600060a08688031215611e4157600080fd5b611e4a86611730565b9450611e5860208701611730565b93506040860135925060608601359150608086013567ffffffffffffffff811115611d2857600080fd5b81835281816020850137506000828201602090810191909152601f909101601f19169091010190565b6001600160a01b038716815285602082015260a060408201526000611ed460a083018688611e82565b60608301949094525060800152949350505050565b6001600160a01b0385168152836020820152606060408201526000611f12606083018486611e82565b9695505050505050565b634e487b7160e01b600052603260045260246000fd5b600060208284031215611f4457600080fd5b61099f82611730565b6000808335601e19843603018112611f6457600080fd5b83018035915067ffffffffffffffff821115611f7f57600080fd5b60200191503681900382131561178e57600080fd5b60008383855260208501945060208460051b8201018360005b8681101561202257838303601f19018852813536879003601e19018112611fd357600080fd5b860160208101903567ffffffffffffffff811115611ff057600080fd5b803603821315611fff57600080fd5b61200a858284611e82565b60209a8b019a90955093909301925050600101611fad565b50909695505050505050565b60a0808252810188905260008960c08301825b8b81101561206f576001600160a01b0361205a84611730565b16825260209283019290910190600101612041565b5083810360208501528881527f07ffffffffffffffffffffffffffffffffffffffffffffffffffffffffffffff8911156120a857600080fd5b8860051b9150818a602083013701828103602090810160408501526120d09082018789611f94565b60608401959095525050608001529695505050505050565b8082018082111561078c57634e487b7160e01b600052601160045260246000fd5b818382376000910190815291905056fea164736f6c634300081b000a",
  "linkReferences": {},
  "deployedLinkReferences": {}
}